:100000000C941B030C9443030C9443030C94430380
:100010000C9443030C9443030C9443030C94430348
:100020000C9443030C9443030C9443030C948F05EA
:100030000C9443030C9443030C9443030C94430328
:100040000C9445050C9443030C9443030C94430314
:100050000C9443030C9443030C9443030C94430308
:100060000C9443030C944303175344001613780075
:10007000161314001510200015201000540A03E177
:1000800081867F3E186D830F0F0E018386603318C3
:100090006DC3198F1803C38E6033186DE330CF180A
:1000A00003C39E603630CDE360CF3006C79E7E3EF0
:1000B00030CDB360CF300CC6F6603330D9B660CFE8
:1000C00033CFCCF66061B0DB1E60CF30D86CE6C0B9
:1000D00061B0DB1E618F19986CC6C063B19B0E3393
:1000E0000F0FB078C6FF7E1F1B061E0F70756E6B5C
:1000F00074000101FF030101F703F600F2000000A4
:100100000000240027002A0000000000250028002D
:100110002B00050089300802380249786814000075
:100120000500680138010000050038016801000081
:1001300005077F4141417F3E5B4F5B3E3E6B4F6B0E
:100140003E183C783C18183C7E3C181C577D571CC8
:100150001C5E7F5E1C007E43437E007E73737E00C8
:100160007E7F7F7E7F4141417F30483A060E0629DF
:100170007929067F4141417F60703F02042A1C3685
:100180001C2A7F3E1C080000081C3E7F14227F2290
:10019000143C3C3C7EFF18423C817E3E6375633ECE
:1001A0003E616B633E3E636B6B3E04027F02041054
:1001B000207F201008082A1C08081C2A0808143E62
:1001C000554122637569756310181C1810040C1CC6
:1001D0000C04000000000000005F000000070007A2
:1001E00000147F147F14042A7F2A102313086462EA
:1001F00036495620500008070300001C2241000029
:1002000041221C002A1C3E1C2A08083E080800E067
:10021000600000080808080800606000006010081E
:1002200004033E5149453E00427F40006251494926
:10023000462141494D331814127F10274545453951
:100240003C4A494930412111090736494949360696
:100250004949291E000024000000806400000814A1
:1002600022410014141414140041221408020159EC
:1002700009063E415D594E7C1211127C7F49494965
:10028000363E414141227F4141221C7F494949413B
:100290007F090909013E414151327F0808087F006A
:1002A000417F41002041413F017F081422417F40AE
:1002B0004040407F020C027F7F0204087F3E4141A4
:1002C000413E7F090909063E416141BE7F09192966
:1002D00046264949493201017F01013F4040403FE4
:1002E0001F2040201F3F4038403F63140814630321
:1002F000047804036151494543007F4141000304F0
:100300000810600041417F000402010204808080E7
:100310008080000307080020545478407F2844441C
:10032000383844444428384444287F3854545418B6
:10033000087E09090218A4A49C787F0804047800A8
:10034000447D4000006080847D7F1010284400417F
:100350007F40007C047804787C08040478384444A6
:100360004438FC1824241818242418FC7C0804049D
:10037000080854545420043F4444203C4040207C0E
:100380001C2040201C3C4020403C44281028444C69
:100390009090907C4464544C440008364100000026
:1003A0007F00000041360800180408100C7F41410E
:1003B000417F450068010000F6E8DBCFC3B8AEA47A
:1003C0009B928A827B746E68625C57524E494541AB
:1003D0003E3A3734312E2C29272523210A0A153A93
:1003E00049676E6F7265006D560A0A504C4541535D
:1003F00045205455524E204F464620004C4F572022
:100400004241545445525921200003053F213F12D7
:1004100008120A100A0E1C0E0C1E0C141A14161FB9
:10042000161E131E1E1B1E1E1F1E3F213F3A2F3A73
:10043000173D173F213F181F02040A041F0E040432
:100440000E1F0A1F0A0E0E1F04110E2E252E2F2A14
:100450002E262929021F02081F08150E04040E1556
:100460000E15151B151B040604040C0400000000E7
:1004700017000300031F0A1F16371A1904130A1561
:100480003A000300000E11110E000A040A040E04C3
:100490000030000404040010001804031F111F1290
:1004A0001F101D151711151F07041F17151D1F15E8
:1004B0001D01011F1F151F17151F000A0000320024
:1004C000040A110A0A0A110A040115020E11171E64
:1004D000051E1F150A0E110A1F110E1F15111F05EB
:1004E000010E111D1F041F111F1108100F1F041BE7
:1004F0001F10101F061F1E040F0E110E1F09060EDF
:10050000112E1F051A121509011F011F101F0F18A8
:100510000F1F0C1F1B041B031C03191513001F11B5
:10052000030418111F000201022020200001020C08
:10053000121E1F120C0C12120C121F0C1A14041E85
:1005400005242A1E1F021C141D1020201D1F081424
:10055000111F101E041E1E021C0C120C3E0A040C5D
:10056000123E1E040214160A020F120E101E0E1066
:100570000E1E081E120C1226281E322A26041E21C8
:10058000001F00211E040102013F213F172B1520EF
:1005900010204C4F4144455200172B1620131400D5
:1005A0000A4E6F2053442063617264206F720A6E9A
:1005B0006F204C4F414445522E4845580A0A153A7F
:1005C00045786974001D20466C617368696E670A1E
:1005D00020206C6F616465722E2E2E0A0A444F4EE5
:1005E0002754205455524E204F464621000000000B
:1005F0000023002600290004040404040404040267
:1006000002020202020303030303030102040810AF
:10061000204080010204081020010204081020007C
:1006200000000800020100000304070000000000B1
:1006300000000000BB1211241FBECFEFD8E0DEBFC8
:10064000CDBF11E0A0E0B1E0ECEEF4E302C0059014
:100650000D92A036B107D9F725E0A0E6B1E001C0C0
:100660001D92A336B207E1F713E0CBE1D3E004C05B
:100670002197FE010E94691ACA31D107C9F70E9469
:10068000CF120C94741A0C940000CF92DF92EF9268
:10069000FF920F931F93CF93DF936C017A018B012D
:1006A000C0E0D0E0CE15DF0589F0D8016D918D0155
:1006B000D601ED91FC910190F081E02DC6010995E4
:1006C000892B11F47E0102C02196ECCFC701DF9186
:1006D000CF911F910F91FF90EF90DF90CF900895F1
:1006E000089580E090E008950E946F1ADC01ED917A
:1006F000FC910190F081E02D09946115710579F06C
:10070000FB0101900020E9F73197AF01461B570B21
:10071000DC01ED91FC910280F381E02D099480E0F1
:1007200090E008954F925F926F927F92EF92FF92C6
:100730000F931F93CF93DF93CDB7DEB7A1970FB67B
:10074000F894DEBF0FBECDBF7C01FA01CB0119A228
:10075000223008F42AE08E010F5D1F4F422E512CEB
:10076000612C712CBF01A30192010E94CA18F901EA
:10077000CA01015011096A3014F4605D01C0695C5E
:10078000D8016C93232B242B252B61F7B801C701CB
:100790000E947D03A1960FB6F894DEBF0FBECDBFB9
:1007A000DF91CF911F910F91FF90EF907F906F900D
:1007B0005F904F900895833081F028F4813099F054
:1007C0008230A1F008958730A9F08830B9F08430E4
:1007D000D1F4809180008F7D03C0809180008F775D
:1007E00080938000089584B58F7702C084B58F7D93
:1007F00084BD08958091B0008F7703C08091B000D0
:100800008F7D8093B00008951F93CF93DF93282F9F
:1008100030E0F901E15EF94F8491F901E55FF94FAC
:10082000D491F901E950FA4FC491CC23C9F0162FA5
:1008300081110E94DB03EC2FF0E0EE0FFF1FE85F59
:10084000FE4FA591B4918FB7F894111105C09C91FA
:10085000ED2FE095E92302C0EC91ED2BEC938FBFD7
:10086000DF91CF911F910895CF93DF9390E0FC012A
:10087000E55FF94F2491FC01E950FA4F84918823F8
:1008800061F190E0880F991FFC01E250FF4FC59184
:10089000D491FC01E85FFE4FA591B491611109C0AC
:1008A0009FB7F8948881209582238883EC912E232A
:1008B0000BC0623061F49FB7F8943881822F809525
:1008C00083238883EC912E2B2C939FBF06C08FB778
:1008D000F894E8812E2B28838FBFDF91CF91089564
:1008E0001F93CF93DF93182FEB0161E00E94340434
:1008F000209711F460E004C0CF3FD10539F461E0E6
:10090000812FDF91CF911F910C940404E12FF0E02F
:10091000E15EF94FE491E330F9F048F4E130B9F0E9
:10092000E230A1F584B5806284BDC8BD34C0E73033
:10093000E9F0E83019F1E43049F5809180008062F7
:1009400080938000D0938B00C0938A0024C084B52C
:10095000806884BDC7BD1FC080918000806880937F
:100960008000D0938900C093880015C08091B000AA
:1009700080688093B000C093B3000DC08091B00038
:1009800080628093B000C093B40005C0C038D10528
:100990000CF0B5CFAFCFDF91CF911F9108958E307E
:1009A00008F08E508770806480937C0080917A007C
:1009B000806480937A0080917A0086FDFCCF8091DC
:1009C00078002091790090E0922B08953FB7F89439
:1009D0008091620190916301A0916401B0916501E1
:1009E00026B5A89B05C02F3F19F00196A11DB11D8A
:1009F0003FBFBA2FA92F982F8827820F911DA11DC5
:100A0000B11DBC01CD0142E0660F771F881F991F01
:100A10004A95D1F708958F929F92AF92BF92CF924D
:100A2000DF92EF92FF926B017C010E94E6044B0182
:100A30005C01C114D104E104F104F1F00E94E60468
:100A4000DC01CB0188199909AA09BB09883E9340AA
:100A5000A105B10570F321E0C21AD108E108F1083F
:100A600088EE880E83E0981EA11CB11CC114D1042D
:100A7000E104F10419F7DDCFFF90EF90DF90CF9004
:100A8000BF90AF909F908F9008951F920F920FB6D6
:100A90000F9211242F933F938F939F93AF93BF9304
:100AA0008091D2029091D302A091D402B091D5024C
:100AB0003091610123E0230F2D3720F40196A11D11
:100AC000B11D05C026E8230F0296A11DB11D20937C
:100AD00061018093D2029093D302A093D402B09389
:100AE000D5028091620190916301A0916401B0915F
:100AF00065010196A11DB11D809362019093630170
:100B0000A0936401B0936501BF91AF919F918F91C4
:100B10003F912F910F900FBE0F901F9018951F922D
:100B20000F920FB60F9211242F936F937F938F9391
:100B30009F936091CF02662359F1809160018F5F8E
:100B4000809360019091D002891710F12091CD021D
:100B500081E028272093CD02109260018091D1027C
:100B6000882369F08091000193E4899F802D1124EE
:100B7000895B809300010E94351A9093CE02222354
:100B800029F08091CE028093B40002C080E0FBCFB8
:100B90009F918F917F916F912F910F900FBE0F902A
:100BA0001F901895FC0161110DC0178A158A14A2B7
:100BB00013A2108E1092CE021092CF021092CD028C
:100BC0001092B4000895EF92FF920F931F93CF936A
:100BD000DF931F92CDB7DEB77C018B01411105C0B9
:100BE00060E049830E94D205498150E0FA01EE0F8E
:100BF000FF1FEE0DFF1D16870587DA011996AA0F54
:100C0000BB1FAE0DBF1D1D921C92F701E40FF51F17
:100C100081E0818389E0868B118E138E158E0F9073
:100C2000DF91CF911F910F91FF90EF900895DC011C
:100C3000FB0184918F5F14968C9314973196E49105
:100C4000EF5F1596EC9315976E5F7F4F5F967C93E1
:100C50006E935E970895FC01643508F053C04033ED
:100C600008F050C090A1742F759575957595262F35
:100C7000062E000C330B542F57709230A1F4F9015B
:100C8000EA52FD4F84E57802E00DF11D11248081C8
:100C900090E0052E02C0959587950A94E2F780951D
:100CA000982F91700AC0933041F484858170462753
:100CB00040954170841303C014C0911112C084E5A3
:100CC0007802200D311D1124F901EA52FD4F81E017
:100CD00090E001C0880F5A95EAF7809590818923AA
:100CE00010C084E57802200D311D1124F901EA526B
:100CF000FD4F81E090E001C0880F5A95EAF790819E
:100D0000892B80830895DF92EF92FF920F931F93B8
:100D1000CF93DF931F92CDB7DEB78C01D62EF42E82
:100D2000E12CE21654F46E2D6D0D4F2DC801298370
:100D30000E942B06E3942981F4CF0F90DF91CF918D
:100D40001F910F91FF90EF90DF900895DF92EF9247
:100D5000FF920F931F93CF93DF937C01D62FD22E58
:100D6000C42F002E000C110B040F111D47FD1A9506
:100D70004C2F0C2E000C550B4017510744F42D2D11
:100D80004C2F6D2FC7010E948306CF5FF1CFDF91FB
:100D9000CF911F910F91FF90EF90DF9008956F9288
:100DA0007F928F929F92AF92BF92CF92DF92EF92FB
:100DB000FF920F931F93CF93DF93EC016A3019F4E6
:100DC0002D819885A1C06D3009F4A4C01885BA841E
:100DD000D98488A083E58D150CF47FC08FE28B1534
:100DE0000CF47BC08C8190E00197189F9001199FB3
:100DF000300D1124C9018D0D911DD7FC9A9518163F
:100E000019060CF06AC08D81819FC00111248B0DE1
:100E1000911DB7FC9A95181619060CF05EC09D2C12
:100E2000CD2CE62EF12CEC2DED190E2E000CFF0B27
:100E30008C8190E0E817F9070CF04EC00197E81795
:100E4000F90779F0E89E9001E99E300DF89E300D8B
:100E50001124E20FF31F8E8D9F8DE80FF91F749000
:100E600001C0712C6B2CAB2C2A2D2B19022E000CDF
:100E7000330B8D8190E0281739075CF570FE10C0A8
:100E8000113031F44A2D6C2DCE010E942B061DC06D
:100E9000012F212F462D692DCE010E94A60615C0D7
:100EA00089A198A1891789F088A3113031F44A2DBE
:100EB0006C2DCE010E942B0607C0012F212F462D3D
:100EC000692DCE010E94A60688A27694A394610E95
:100ED000CBCFC394910EA7CF88A228853C8189856A
:100EE000329F800D112489879F81992399F0082EC4
:100EF000000C990B44E550E0239F4019510911243F
:100F0000481759073CF49D818A85299F800D11243B
:100F10008A87198681E090E0DF91CF911F910F9130
:100F2000FF90EF90DF90CF90BF90AF909F908F9009
:100F30007F906F900895CF93DF93EC010E948A1801
:100F400025E430E040E050E00E949818DC01CB013D
:100F50000296A11DB11D88830E948A182AE230E002
:100F600040E050E00E949818DC01CB010296A11DE0
:100F7000B11D8983DF91CF9108956AE074E08AE220
:100F800095E00E9417068CE48093330581E08093FE
:100F90003405809167018A3028F460E38AE295E0A5
:100FA0000E9476034091670150E060E070E02AE023
:100FB0008AE295E00C9492030F93CF93DF930E9403
:100FC000740F0E94370FC0E0D7E080916801C81706
:100FD00048F4DC9FC001112487599E4F0E94260FC0
:100FE000CF5FF3CF81E080934A0580934B0500E308
:100FF00029E040E06BE48AE295E00E94A6061092A8
:101000004A0510924B050E94BD076AE074E08AE22F
:1010100095E00E941706CCE4C093330584E28093E8
:10102000340581E191E00E94570FC09333058AE2B5
:1010300080933405809166018A3028F460E38AE267
:1010400095E00E9476034091660150E060E070E018
:101050002AE08AE295E0DF91CF910F910C94920300
:10106000CF93DF9300D01F92CDB7DEB71092680107
:1010700010926701E9EDF4E083E2808386E18183E9
:10108000CE0101960E949B0789819A81AB81809352
:10109000D6049093D704A093D8041092C70240E0DE
:1010A00068E271E081E095E00E94E3050F900F9007
:1010B0000F90DF91CF9108953F924F925F926F9280
:1010C0007F928F929F92AF92BF92CF92DF92EF92D8
:1010D000FF920F931F93CF93DF9380914C0588234A
:1010E00009F462C181E080933205109231051092BB
:1010F00030051092F40480934A0580934B059CE7D9
:10110000492E90E0592E2DE7822E20E0922EC1E04C
:10111000DCE00E94DE0A8823E1F3ECEEF0E084914B
:10112000F201C490F401A49000914A050C2C000C2B
:10113000DD081C141D040CF110923305D093340506
:101140008CEE90E00E94C31080912E05982F990F8D
:10115000890F81958D5A8093330580912F05982FA3
:10116000990F890F8195835D8093340580914D059A
:1011700084FFA4C088E790E0A3C01A14ECF64A2DBF
:1011800041330CF040E33C2DF5E5CF16D1040CF0D3
:1011900034E5F090360587E0C80ED11C83E0D59485
:1011A000C7948A95E1F710E086ED92E021E06EE7C2
:1011B00070E0A42E440FBB08412F50E04A155B0598
:1011C0000CF0BACFFB01E4900130B9F4DC0140E847
:1011D000542F5E2119F05C91522B5C9350E0559591
:1011E00047954115510519F43196E49040E8119660
:1011F0005A2F581B531760F358C001111AC0722E92
:101200007094FB01DC0140E8542F5E2119F05C91E1
:1012100057215C9350E0559547954115510519F4B8
:101220003196E49040E811965A2F581B531760F3FB
:101230003CC0033019F5622E6094FB01DC0140E8EC
:10124000782E3A2E381A542F5E2141F03F245C91BB
:1012500030FE02C0522B01C056215C9350E05595E0
:1012600047954115510519F43196E49040E81196DF
:101270005A2F5719531728F3FC2617C0FB01DC011E
:1012800040E8542F5E2119F05C9152275C9350E0A6
:10129000559547954115510519F43196E49040E86C
:1012A00011965A2F581B531760F3220F19F48C5ABA
:1012B0009F4F21E01F5F6C0D7D1D7ECF84E790E086
:1012C0000E94E41080912E05982F990F890F819527
:1012D0008D5A80933305809134058F5F8093340558
:1012E00080910605882319F080E790E002C08CE623
:1012F00090E00E94E41080912E05982F990F890F9D
:1013000081958D5A80933305809134058F5F80934A
:10131000340588E690E00E94E4108091F204813068
:10132000C9F4809106058F5F6091070587FD09C0AC
:10133000082E000C990B70E06F5F7F4F0E94411ADE
:10134000682F6093060540E062EB73E081E095E072
:101350000E94E3058091F1048130A9F080914C0551
:10136000482F50E060E070E000914D0510914E056F
:1013700020914F05309150050417150726073707B0
:1013800080F18F3F71F18FEF80934C0560E081E039
:1013900095E00E94D2051092020540E068E271E0FB
:1013A00081E095E00E94E30581E280935B0581E0A6
:1013B000809305051092F40482E08093C702DF91C8
:1013C000CF911F910F91FF90EF90DF90CF90BF9042
:1013D000AF909F908F907F906F905F904F903F90D5
:1013E00008958091F304813009F093CE0E94F410A7
:1013F0008ECE0F931F93CF93DF93EC012A818B81C5
:101400009C81AD81BE81222309F446C08A019B01E3
:10141000081B190B2A0B3B0BC901B80122ED30E068
:1014200040E050E00E94CA186932710581059105BB
:1014300018F4605F688375C0693671058105910590
:1014400088F46952710989E3860F669F9001679F4E
:10145000300D300D112466E0359527956A95E1F73A
:10146000821B06C0623971052CF422EA822F861B8A
:10147000888357C06259710980E1282F261B669F17
:10148000C001679F900D900D112456E095958795AA
:101490005A95E1F7820FECCF8A019B01081B190BCB
:1014A0002A0B3B0BC901B8012CE930E040E050E0C9
:1014B0000E94CA186E3071058105910518F4605FAD
:1014C00069832FC06E3471058105910588F46E50D3
:1014D00071098EE1860F669F9001679F300D300D78
:1014E000112446E0359527954A95E1F7821B18C0EF
:1014F0006C35710524F42CE6822F861B11C06C55C7
:10150000710980E1282F261B669FC001679F900DFF
:10151000900D112436E0959587953A95E1F7820F65
:101520008983DF91CF911F910F910895CF92DF9220
:10153000EF92FF92CF93DF93EC016A017B010E944F
:101540008A182BE730E040E050E00E94981821E034
:1015500060337105810591050CF020E02A83222378
:1015600081F00E948A182EE230E040E050E00E94B4
:1015700098186983D701C60189549109A109B10955
:101580000EC00E948A1829E430E040E050E00E943A
:1015900098186883D701C6018E97A109B1098B837A
:1015A0009C83AD83BE83B701A601CE01DF91CF91AD
:1015B000FF90EF90DF90CF900C94F9094F925F92DB
:1015C0006F927F928F929F92AF92BF92CF92DF9253
:1015D000EF92FF920F931F93CF93DF9300D000D031
:1015E0001F92CDB7DEB740915C0550915D056091CB
:1015F0005E0570915F052FB7F8948091D2029091AB
:10160000D302A091D402B091D5022FBF481B590B31
:101610006A0B7B0B80915B0590E0A0E0B0E000914D
:101620005705109158052091590530915A05841796
:101630009507A607B70730F40115110521053105F7
:1016400009F022C3012B022B032B09F01BC380914D
:10165000F30481508E3F30F58091F204813039F5EA
:10166000809106058F5F6091070587FD09C0082EF0
:10167000000C990B70E06F5F7F4F0E94411A682F3A
:101680006093060589E995E0909361058093600574
:1016900088E48093620540E062EB73E081E095E0CE
:1016A0000E94E3058091F30481508E3F70F4809195
:1016B000F104813009F094C38CE895E090936105C2
:1016C0008093600588E48093620580E00E94291180
:1016D00080910205882309F4ADC08091160581111F
:1016E000A9C080910E0590910F05E0911305F0912E
:1016F0001405EE0FFF1FE80FF91F45915491411596
:10170000510501F520911205222331F010921405A4
:1017100010921305FC0114C010920205809101057E
:10172000882341F080E00E942911E0911305F09197
:1017300014052FC060E081E095E00E94D2057AC0D8
:10174000459154919A01369527953695279540FFF6
:1017500051C0CA0116E0969587951A95E1F78F71E9
:10176000952F96959695969590512F70223071F100
:10177000F8F4211117C08B3008F08AE08093170528
:10178000E0911305F09114053196F0931405E09360
:101790001305EE0FFF1F80910E0590910F05E80FC6
:1017A000F91FCECF213061F760E00E946A11E8CFC7
:1017B0002330B1F0243021F720910505829F802D40
:1017C000112480931E0590931F05DACF2091050503
:1017D000829F802D112480931A0590931B05D0CFF2
:1017E00020910505829F802D112480931C059093E4
:1017F0001D05C6CF2F732093150580910505859F84
:10180000802D11248093160510922605109225052F
:101810001092240581E0809318058093CD021092E8
:101820001905809113059091140501969093140564
:101830008093130580911805882309F4F3C08091E3
:101840001605811106C060E081E095E00E94D20596
:10185000E9C081508093160580912605811148C00A
:1018600020912405309125052F5F3F4FC901880F36
:10187000991FE0912005F0912105E80FF91F65916E
:101880007491862F877080932705AB01E3E056950E
:101890004795EA95E1F7CA0196958795972F969512
:1018A0009695909328058F7390910505899F802DBB
:1018B00011248093260541704093D1023093250571
:1018C000209324058091220590E02817390780F0A5
:1018D00020912305222339F0821B9109909325053D
:1018E0008093240505C060E081E095E00E94D20568
:1018F000809126058150809326058091190521E06D
:10190000280F209319054091150530912805340FB3
:1019100080910D05380F3093030560911C056623F7
:1019200071F070E0822F022E000C990B0E94411A78
:1019300080911D05869F300D112430930305809101
:10194000030590E0849664E270E00E94411A80935F
:101950000305309117053093040560911A0566233D
:1019600081F0062E000C770B822F022E000C990BB3
:101970000E94411A80911B05869F300D11243093DF
:10198000040560911E056623A1F0822F220F990B9A
:1019900070E00E94411ACB0162E070E00E94411A9F
:1019A00020911F0590910405289F900D112490937C
:1019B0000405809104054F3341F08A300CF089E032
:1019C00087FD80E08093040502C010920405F8941E
:1019D000E0910305F0E0E854FC4FE491E093D0027D
:1019E0003091040520912905320390011124409182
:1019F00027054203C001439F900D11240090060566
:101A000002C0880F991F0A94E2F797FF02C081581D
:101A10009F4F880F892F881F990B8093CF02809347
:101A2000CE02789480916205882309F482C08C30BC
:101A300020F49CE0E92EE81A01C0E12CFF24F39485
:101A4000F092320510924A0510924B0530912F0505
:101A50004DE2D42E1D2D131B1E0D03E0030F2EE4AB
:101A6000412F63E08AE295E03D830E94A6063D8116
:101A70000CEF030F1D5F202F41E0612F80E50E94D6
:101A80002312202F42E0612F83E00E942312F09264
:101A90004A05F0924B0500912F05FD2CF01AFE0C23
:101AA0002EE44F2D63E08AE295E00E94830613E066
:101AB000100F1F0D4FEF410F2EE463E08AE295E017
:101AC0000E948306035033E0F30E402F6F2D80E019
:101AD0000E945C0F402F6F2D83E50E945C0F41E058
:101AE0006F2D83E00E94A51142E06F2D80E50E94DA
:101AF000A511145044E0612F80E50E94A51148E033
:101B0000612F83E00E94A51184E0809333058091CA
:101B10002F05E81A8E2D815D809334058091600534
:101B2000909161050E94C31080916205815080935D
:101B300062058091F8049091F904892B09F47AC028
:101B400011E010934A0510924B0590912E0585E502
:101B5000891B80933305109234056091F504613040
:101B600009F449C030F08091F404653008F05BC09E
:101B700056C060E081E095E00E94D2051092020517
:101B8000109332056AE074E08AE295E00E9417063D
:101B90001092F9041092F8041092300518EA0E948D
:101BA000DE0A8823E1F38CEF93E00E94C31040919A
:101BB000F6045091F70460E070E02AE08AE295E0D4
:101BC0000E94920387EE93E00E94C310412F42953A
:101BD0004F7050E060E070E02AE08AE295E00E94F9
:101BE00092038CED93E00E94C3108091F104813048
:101BF00009F0FCC01FC080914D0590914E05A09149
:101C00004F05B09150058F709927AA27BB270897D9
:101C1000A105B10510F467E009C068E707C0882393
:101C200049F06B5F03C0882329F06FE28AE295E0F8
:101C30000E9476030E9483108091300581110EC0AE
:101C400088EF91E0E6EDF2E0DF019C011D9221506A
:101C50003040E1F710923305109234050E94E604FB
:101C600060935705709358058093590590935A05D2
:101C70002091530530915405621B730B70935205EC
:101C80006093510580E0CCC02FB7F8948091D202C8
:101C90009091D302A091D402B091D5022FBF209190
:101CA0005B05820F911DA11DB11D80935C05909372
:101CB0005D05A0935E05B0935F0580914D05909101
:101CC0004E05A0914F05B09150050196A11DB11D83
:101CD00080934D0590934E05A0934F05B09350050A
:101CE00010925705109258051092590510925A05F6
:101CF0000E94E60460935305709354058093550544
:101D0000909356058091DD049091DE042FE0289F8A
:101D10008001299F100D112485E10E94CF04800FBE
:101D2000911F24E0969587952A95E1F79093DE041C
:101D30008093DD042091DC04222309F44BC06091E0
:101D4000E004262F30E040E050E029833A834B83C3
:101D50005C83C090E104D12CE12CF12C4091E4048F
:101D60005091E5044A01A12CB12C2091E20430915C
:101D7000E3042901612C712C8217930728F09C0140
:101D80004817590708F49A01C901A0E0B0E09C0186
:101D9000AD01241935094609570969817A818B817A
:101DA0009C816C197D098E099F090E94251AA50145
:101DB000940124193509460957090E949818C20E42
:101DC000D31EE41EF51EC092DF046C2D70E085E08A
:101DD0000E9470040E9410100E947E1281E020C0B8
:101DE000893209F072CC0E94F4106FCC115009F0C6
:101DF000D6CE60E070E085E00E94700483B7817FFA
:101E0000846083BF83B7816083BF83B7816083BFF2
:101E1000889583B78E7F83BF83B78E7F83BFBFCE06
:101E20000F900F900F900F900F90DF91CF911F9117
:101E30000F91FF90EF90DF90CF90BF90AF909F9069
:101E40008F907F906F905F904F9008950F9321E057
:101E500020934A0520934B0502E022E0FC014181DA
:101E600060818AE295E00E94A6060F9108950F9383
:101E7000CF93DF9381E080934A0580934B05C9EDB2
:101E8000D4E068816F5F04E022E049818AE295E056
:101E90000E94A60649814F5F02E024E068818AE241
:101EA00095E00E94A606DF91CF910F910895BC01A5
:101EB0008AE295E00C947D030F931F93CF93DF93F9
:101EC000182F062FD42FC0E0CD174CF44C2F400F05
:101ED000612F8AE295E00E942B06CF5FF5CFDF915C
:101EE000CF911F910F9108950F9381E080934A0540
:101EF00080934B0502E022E04091D7046091D60424
:101F00008AE295E00E94A6068091D8048F5F8093B4
:101F1000D80483FF2EC083E080934A0580934B054D
:101F20004091D70442506091D604615024E08AE287
:101F300095E00E9483064091D7044D5F6091D604DE
:101F4000615024E08AE295E00E9483066091D70404
:101F500061508091D60444E082500E945C0F6091F1
:101F6000D70461508091D60444E08D5F0F910C94AA
:101F70005C0F0F9108958F929F92AF92BF92CF9274
:101F8000DF92EF92FF92C090F604D090F704C094D5
:101F9000D094E12CF12C0E94E6044B015C010E94DC
:101FA000E604A501940120953095409550956095E3
:101FB0007095809590950E94251A9B01AC01C701F0
:101FC000B6010E94251A4B015C018091DD049091BD
:101FD000DE046C01E12CF12C0E94E604C60ED71E33
:101FE000E81EF91EC701B601680D791D8A1D9B1DEB
:101FF000611571058105910551F0FF90EF90DF901B
:10200000CF90BF90AF909F908F900C948F18FF90BF
:10201000EF90DF90CF90BF90AF909F908F900895FA
:10202000CF92DF92EF92FF920F931F93CF93DF93A4
:10203000C6EED4E00DEE14E0FF24FA9497E0E92E0A
:10204000E00E62E088810E943404288130E0F901CA
:10205000E15EF94F8491F901E55FF94FC490F90110
:10206000E950FA4FD490DD2071F081110E94DB031A
:10207000ED2DF0E0EE0FFF1FE351FA4FA591B49163
:10208000EC91EC21B1F4F80180818F5F808360E0F6
:1020900088810E94340421960F5F1F4FE012D1CF38
:1020A000DF91CF911F910F91FF90EF90DF90CF9034
:1020B0000895F8018081882371F3F8018F3F11F4AE
:1020C0001082E5CFF082E3CFCF93C82FF89460E081
:1020D000809139050E94040480913A0518161CF479
:1020E00060E00E940404CEBD00000DB407FEFDCFE9
:1020F0008EB580913A0518161CF461E00E94040424
:102100007894CF9108950F931F93CF9380913605C4
:102110008F5F8093360506ED12E0C0E08C2F80645F
:102120000E94641080E80E94641061E0809139058B
:102130000E94040480913A0518161CF460E00E9485
:10214000040480E090E0F801E80FF91F20812EBD23
:1021500000000DB407FEFDCF2EB501968435910524
:1021600091F780913A0518161CF461E00E9404046E
:10217000CF5F0C5A1F4FC63089F680E4CF911F9174
:102180000F910C9464100F931F93CF93DF938C01E6
:10219000C0E0D0E0F801EC0FFD1F6491662371F000
:1021A000E0912A05F0912B050190F081E02D8AE263
:1021B00095E00995892B11F02196ECCFCE01DF91A6
:1021C000CF911F910F910895CF93DF930E94C31079
:1021D000EC0165E571E08AE295E00E947D038C0FD9
:1021E0009D1FDF91CF91089588EF91E0E6EDF2E039
:1021F000DF019C011D9221503040E1F71092330520
:102200001092340585EC95E00E94C3100E94831063
:102210008CB583608CBD8DB58E7F8DBD88E591E0DA
:10222000EEEFFFE309951092300580EA95E00E94F9
:10223000E4100E9483100E9410108091F1048130FC
:1022400039F062E370E080E090E00E940B05F3CF8C
:102250000895CF93DF93482F50E0EA01C452DB4F3B
:102260009DA19923A1F19EA1911131C09EA5FA01D2
:10227000EE0FFF1FED51FB4F35A126A1E32FF22FEB
:10228000E90FF11DE90FF11D259134912F3F9FEFCB
:10229000390711F41DA21BC039AB440F551FFA01B9
:1022A000EA51FB4F3327220F331F05A0F6A1E02D83
:1022B000E20FF31F65917491811105C040E081E048
:1022C00095E00E94E30529968DA18F5F8DA3DF9194
:1022D000CF91089570E0DB01AA0FBB1FA452BB4F42
:1022E000D4962C91D497D5969C91D597E22FF92F1F
:1022F000E80FF11DE80FF11D259134915F96969638
:102300003C932E939597F9018591949190910505B1
:10231000989F802D112464527B4FFB01B19685A3B9
:10232000F901A591B4914B2F50E0E82FF0E04E1742
:102330005F0720F4F90125913491832FFB01B296B8
:10234000899F802D112485A30895AF92BF92CF92CB
:10235000DF92EF92FF920F931F93CF93DF93182F8B
:10236000062FC1E0D3E08AEFD82E9EEFE92E842F0E
:102370008470C82E842F8270B82E842F8870A82E67
:102380004170F42E8C2F880F8F5FE80ECC2081F0E7
:102390004D2F400F6C2F610F8AE295E00E942B06B3
:1023A0004C2F400F6D2F610F8AE295E00E942B06A3
:1023B000BB2081F0402F4D1B6C2F610F8AE295E00E
:1023C0000E942B06402F4C1B6D2F610F8AE295E077
:1023D0000E942B06AA2081F04C2F400F612F6D1B0D
:1023E0008AE295E00E942B064D2F400F612F6C1B57
:1023F0008AE295E00E942B06FF2081F0402F4C1BC3
:10240000612F6D1B8AE295E00E942B06402F4D1B29
:10241000612F6C1B8AE295E00E942B06CD1744F4D5
:10242000E7FC04C0D150D394D394ED0CCF5FAACF76
:10243000DF91CF911F910F91FF90EF90DF90CF90A0
:10244000BF90AF9008959F92AF92BF92CF92DF92CC
:10245000EF92FF920F931F93CF93DF93F82EE62E08
:10246000B22E03E0020FD0E0C3E08AEFC82E1EEFC9
:10247000842F8170982EAA24A394A20E4270D42E89
:10248000DF5F802F8B19180F992081F04C2F440F9C
:102490004A0D6E2D6C1B8D2F8F0D0E945C0F402FEF
:1024A0006E2D6D1B8C2F8F0D0E945C0FDD2081F037
:1024B0004C2F440F4A0D6E2D6C1B8F2D8D1B0E94CF
:1024C0005C0F402F6E2D6D1B8F2D8C1B0E945C0F9F
:1024D000DC1744F417FD04C0C150C394C3941C0D11
:1024E0000E5FCECFDF91CF911F910F91FF90EF90B4
:1024F000DF90CF90BF90AF909F9008958091F804A7
:102500009091F904892BB1F1809100058F7169F5E3
:1025100084E10E94CF04BC01990F880B990B0E94A3
:102520002C1926EE3FE34EEC50E40E9490190E94D5
:10253000FB189B017093F7046093F604672B91F0EE
:1025400084E08093F504E8EFF4E080E0419151915C
:102550002417350718F48093F50408958F5F8430AD
:10256000A9F703C08FEF8093F504809100058F5F7A
:1025700080930005089510922D0510922C0589E096
:1025800091E090932B0580932A05E9EDF4E083E236
:10259000808386E1818386ED94E00C949B07789498
:1025A00084B5826084BD84B5816084BD85B5826058
:1025B00085BD85B5816085BD80916E008160809309
:1025C0006E00109281008091810082608093810072
:1025D0008091810081608093810080918000816082
:1025E000809380008091B10084608093B1008091DD
:1025F000B00081608093B00080917A008460809305
:102600007A0080917A00826080937A0080917A00CB
:10261000816080937A0080917A00806880937A004C
:102620001092C10082E380935B0581E090E0A0E01E
:10263000B0E08093570590935805A0935905B09347
:102640005A058FEF80934C05E0E8F7E72591349128
:102650002130304C09F049C0E6E9F7E7E491E09316
:102660003505E7E9F7E7E491E093E004E8E9F7E707
:10267000E491E093E104E9E9F7E78591949190937F
:10268000E3048093E204EBE9F7E78591949190935A
:10269000E5048093E40488E080930705EEE9F7E71A
:1026A000E491E0930605EFE9F7E7E491E0934C0548
:1026B000E0EAF7E7859194919093F9048093F80408
:1026C000E2EAF7E7859194919093FB048093FA04F2
:1026D000E4EAF7E7859194919093FD048093FC04DC
:1026E000E6EAF7E7859194912CC09CE39093350539
:1026F0001092E0048093E10480E293E09093E3047D
:102700008093E20484ED93E09093E5048093E404E5
:1027100088E080930705809306058CEA9DE09093FE
:10272000F9048093F8048EED9DE09093FB04809370
:10273000FA0484E79EE09093FD048093FC048CE30C
:102740009FE09093FF048093FE04C1E0C093DC04FB
:102750006FEF70E085E00E94700488E08093E604EB
:1027600089E08093E70487E08093E80486E0809323
:10277000E904D4E0D093EA0482E08093EB0481E1A1
:102780008093EC040E9410108CE39FE09093F70478
:102790008093F604D093F504C09300058BE08093FA
:1027A00038058DE08093370580E1809339058EE010
:1027B00080933B058FE080933A05C0933205C09328
:1027C0004A0510924B05C09331056AE074E08AE235
:1027D00095E00E941706CFB7F8948091C802811146
:1027E00027C0E1E0F6E08491E5E1F6E09491E82F7E
:1027F000F0E0EE0FFF1FE250FF4FA591B491EC9176
:10280000E92321F461E08AE00E94040461E08AE0A7
:102810000E9434048CB580618CBD8CB580648CBD05
:1028200061E08DE00E94340461E08BE00E9434049A
:102830008091C8028F5F8093C802CFBF8CB58F7D17
:102840008CBD8CB58C7F81608CBD8DB581608DBD5C
:102850008CB58C608CBD61E0809138050E94340499
:1028600061E0809137050E94340461E08091390570
:102870000E94340480913B0518161CF461E00E940C
:10288000340480913A0518161CF461E00E94340467
:1028900080913B05181674F460E00E9404046AE01D
:1028A00070E080E090E00E940B0561E080913B05C4
:1028B0000E94040480913705082E000C990BFC013E
:1028C000E950FA4FE491F0E0EE0FFF1FE85FFE4F92
:1028D0002591349130933F0520933E05FC01E55F3F
:1028E000F94FE491E093450580913805082E000CDE
:1028F000990BFC01E950FA4FE491F0E0EE0FFF1F55
:10290000E85FFE4F2591349130933D0520933C05BF
:10291000FC01E55FF94FE491E093440580913A05AD
:10292000082E000C990BFC01E950FA4FE491F0E0FD
:10293000EE0FFF1FE85FFE4F259134913093410564
:1029400020934005FC01E55FF94FE491E0934605D3
:1029500080913905082E000C990BFC01E950FA4FC3
:10296000E491F0E0EE0FFF1FE85FFE4F25913491F8
:102970003093430520934205FC01E55FF94FE49154
:10298000E093470581E20E94641084E10E94641094
:102990008091350587FF03C08FE7809335058091CF
:1029A000350580680E94641080E20E9464108CE00B
:1029B0000E9464100E94831081E08093050584E0EA
:1029C000809329058AEF90E090931105809310057C
:1029D00060E080E00E946A1161E070E083E00E94A4
:1029E00070048091B100887F81608093B100F89479
:1029F0001092800010928100109285001092840045
:102A000088E191E090938900809388008091810013
:102A10008860809381008091810081608093810033
:102A200080916F00826080936F0078940E947E1284
:102A30008091F204813019F4109206050BC0809148
:102A4000F5048823C9F340E062E171E081E095E09C
:102A50000E94E3050E94BB0F0E945C0877E0B72E3E
:102A6000E0E0CE2EE0E0DE2EF3E0FF2EC1E0ABE1B1
:102A70009A2EB9E18B2ED6E131E2332E48E1242E95
:102A800050E1E52E60E2A62E0E94DE0A882309F4BA
:102A900085C08091F304813009F487C01091C7028A
:102AA000123009F445C028F4112351F0113089F097
:102AB00075C0133009F44FC0143009F452C06EC011
:102AC0009091EE0491508091ED049E3F08F070C00B
:102AD00076C00E94DC0710934A0510934B05809145
:102AE0004D0583FD0E94BD0707E025E244E163E157
:102AF0008AE295E00E94A6066AE074E08AE295E028
:102B00000E94170610924A0510924B0584E18093AB
:102B1000330585E18093340584E191E00E94570FED
:102B20008091F104813009F082C10E94300836C0E2
:102B300080914D0590914E05A0914F05B0915005A3
:102B40008093C9029093CA02A093CB02B093CC02A7
:102B5000F092C70223C08091F104813009F06DC169
:102B6000E4CF8091F104813029F08091F20481302A
:102B700009F00AC280914D0590914E05A0914F0534
:102B8000B09150058093C9029093CA02A093CB02E2
:102B9000B093CC02F092C7020E94BB0FC114D104C3
:102BA00009F472CF0E94000066CF0E945C0876CFC5
:102BB0009091F00491509E3F08F006C1DCC0815016
:102BC0008E3F38F08091EF0481508E3F08F0ECC0CA
:102BD000C2C08091DB049BE5980F9093DB048927AA
:102BE00087FF0EC08091DA04882319F0815080930A
:102BF000DA048091D904882319F081508093D90494
:102C0000712C809168017816A0F540914D05509186
:102C10004E0560914F0570915005B79C80011124BD
:102C200007591E4FC8010E94F9096091DA0480918A
:102C3000D90490E0F801208130E0AC014C5F5F4F97
:102C400024173507A4F42F5F3F4F281739077CF06E
:102C5000262F30E0818190E0A9014C5F5F4F8417FF
:102C600095072CF40196821793070CF0CEC073944D
:102C7000C8CF2091DA044091D90450E08091D60465
:102C800090E0BA016C5F7F4F861797070CF060C029
:102C90000196841795070CF45BC030E08091D7044F
:102CA00090E0A9014C5F5F4F841795070CF050C06E
:102CB0000196821793070CF44BC0B1C0019684179C
:102CC000950704F130E08091D70490E0A9014C5FB2
:102CD0005F4F84179507B4F401968217930794F019
:102CE00086ED94E00E949B072091DA044091D9047C
:102CF00050E08091D60490E0BA016C5F7F4F861758
:102D00009707E4F280916801823398F440914D0571
:102D100050914E0560914F057091500591E0980FCC
:102D200090936801B89EC001112487599E4F0E945C
:102D3000960A80916701843618F48F5F809367014B
:102D40008091670190916601981710F48093660155
:102D50000E94DC0723CF8091DB049BE5980F9093C2
:102D6000DB04892787FF4CCF8091DA04882309F49C
:102D700045C0815016C081508E3F50F18091EF04C4
:102D800081508E3FC0F48091DB049BE5980F9093B7
:102D9000DB04892787FF34CF8091DA048C3270F509
:102DA0008F5F8093DA042AC08091DA04882309F4C3
:102DB00027CF815006C08091DA048C3208F020CFF2
:102DC0008F5F8093DA041CCF81508E3F88F411CF3F
:102DD0008091DB049BE5980F9093DB04892787FFA4
:102DE0000FCF8091DA048C3208F003CF8F5FFFCED3
:102DF0008091EF0481508E3F08F002CF8091D9047A
:102E0000873408F0FDCE8F5FF9CE40E060E271E0DC
:102E100081E095E00E94E305C093C70228CF40E01F
:102E200068E271E081E095E00E94E30559CF80916E
:102E3000F204813009F0B2CE78CE2091F204809174
:102E40004D0590914E05A0914F05B0915005213050
:102E500099F58093C9029093CA02A093CB02B093D4
:102E6000CC0284E08093C70261E070E080E090E0F3
:102E70000E948F1886ED94E00E949B0740914D05BB
:102E800050914E0560914F057091500589E691E093
:102E90000E94960A40914D0550914E0560914F0554
:102EA0007091500580E791E00E94960A83E280933A
:102EB000D904D093DA0472CE4091C9025091CA026B
:102EC0006091CB027091CC022C013D01441A550A4D
:102ED000660A770AC0934A05C0934B0560E371E028
:102EE0008AE295E00E941706FCE24F165104610445
:102EF000710408F047C0D301C201B695A795979514
:102F00008795875080933405909233058EE191E048
:102F10000E94570FFDE24F1651046104710408F43A
:102F20003DCE6AE074E08AE295E00E941706809246
:102F30003405D093330584E291E00E94570F30921C
:102F40003405D09333058AE291E00E94570F43FE87
:102F500025CE60E371E08AE295E00E941706209298
:102F60003405E092330565E18AE295E00E9476033C
:102F7000A0923405E092330566E18AE295E00E9472
:102F800076030CCE8FE0BECF40914D0550914E059B
:102F900060914F05709150058091C9029091CA02CD
:102FA000A091CB02B091CC022A013B01481A590AE8
:102FB0006A0A7B0AC0934A05C0934B056AE074E035
:102FC0008AE295E00E94170684E6481651046104DF
:102FD000710468F48FE1809333058EE080933405AB
:102FE00087E391E00E94570F0E94370FD7CD9AEFE9
:102FF000491651046104710468F48AE08093330532
:103000008EE0809334058BE391E00E94570F0E947D
:10301000740FC4CDE0E94E16E1E05E066104710470
:1030200008F0A8CD8EE0809333058093340589E4C1
:1030300091E00E94570F40914D0550914E056091CF
:103040004F057091500589E691E00E94F909409181
:103050004D0550914E0560914F057091500580E7E8
:1030600091E00E94F90989E691E00E94260F80E72D
:1030700091E00E94260F92CD8F929F92AF92BF92C5
:10308000CF92DF92EF92FF92CF93DF93EC016881B2
:1030900079818A819B81611571058105910521F4F2
:1030A00064E279ED8BE597E02DE133EF41E050E00C
:1030B0000E94981849015A019B01AC01A7EAB1E4AA
:1030C0000E94B7186B017C01ACEEB4EFA50194012E
:1030D0000E94C518DC01CB018C0D9D1DAE1DBF1DCE
:1030E000B7FF03C00197A109B04888839983AA83D9
:1030F000BB83BC01CD019F77DF91CF91FF90EF9013
:10310000DF90CF90BF90AF909F908F9008950E94D6
:103110003C18089581E091E00E943C180895609366
:1031200001017093020180930301909304010895BB
:10313000052E97FB1EF400940E94AF1857FD07D090
:103140000E94CA1807FC03D04EF40C94AF18509597
:103150004095309521953F4F4F4F5F4F0895909583
:103160008095709561957F4F8F4F9F4F08950E9476
:10317000EC18A59F900DB49F900DA49F800D911DFC
:1031800011240895B7FF0C94B7180E94B718821B3A
:10319000930B0895A1E21A2EAA1BBB1BFD010DC0C3
:1031A000AA1FBB1FEE1FFF1FA217B307E407F507F7
:1031B00020F0A21BB30BE40BF50B661F771F881FD3
:1031C000991F1A9469F760957095809590959B0169
:1031D000AC01BD01CF010895A29FB001B39FC00112
:1031E000A39F700D811D1124911DB29F700D811D33
:1031F0001124911D08950E946F1988F09F5798F02F
:10320000B92F9927B751B0F0E1F0660F771F881FEB
:10321000991F1AF0BA95C9F714C0B13091F00E9405
:103220008919B1E008950C948919672F782F8827A0
:10323000B85F39F0B93FCCF3869577956795B3952C
:10324000D9F73EF490958095709561957F4F8F4F9B
:103250009F4F0895E89409C097FB3EF490958095A0
:10326000709561957F4F8F4F9F4F9923A9F0F92F4C
:1032700096E9BB279395F695879577956795B795CA
:10328000F111F8CFFAF4BB0F11F460FF1BC06F5FB0
:103290007F4F8F4F9F4F16C0882311F096E911C0C2
:1032A000772321F09EE8872F762F05C0662371F0E3
:1032B00096E8862F70E060E02AF09A95660F771FF7
:1032C000881FDAF7880F9695879597F9089557FD27
:1032D0009058440F551F59F05F3F71F04795880F84
:1032E00097FB991F61F09F3F79F08795089512161B
:1032F00013061406551FF2CF4695F1DF08C01616C7
:1033000017061806991FF1CF869571056105089477
:103310000895E894BB2766277727CB0197F908958E
:103320000E94A3190C94141A0E94061A38F00E94E5
:103330000D1A20F0952311F00C94FD190C94031A2A
:1033400011240C948A190E94671970F3959FC1F398
:10335000950F50E0551F629FF001729FBB27F00D43
:10336000B11D639FAA27F00DB11DAA1F649F662798
:10337000B00DA11D661F829F2227B00DA11D621FE7
:10338000739FB00DA11D621F839FA00D611D221FA1
:10339000749F3327A00D611D231F849F600D211D85
:1033A000822F762F6A2F11249F5750409AF0F1F008
:1033B00088234AF0EE0FFF1FBB1F661F771F881F71
:1033C00091505040A9F79E3F510580F00C94FD1993
:1033D0000C948A195F3FE4F3983ED4F38695779571
:1033E0006795B795F795E7959F5FC1F7FE2B880F17
:1033F000911D9695879597F9089597F99F6780E8AD
:1034000070E060E008959FEF80EC089500240A9436
:103410001616170618060906089500240A941216AF
:103420001306140605060895092E0394000C11F4E2
:10343000882352F0BB0F40F4BF2B11F460FF04C08F
:103440006F5F7F4F8F4F9F4F0895DB018F939F9347
:103450000E94B718BF91AF91A29F800D911DA39FAD
:10346000900DB29F900D11240895991B79E004C02E
:10347000991F961708F0961B881F7A95C9F78095B3
:10348000089597FB072E16F4009407D077FD09D016
:103490000E94551A07FC05D03EF4909581959F4FE8
:1034A0000895709561957F4F0895AA1BBB1B51E14C
:1034B00007C0AA1FBB1FA617B70710F0A61BB70BA4
:1034C000881F991F5A95A9F780959095BC01CD0149
:1034D0000895EE0FFF1F0590F491E02D099481E00F
:0C34E00090E0F8940C94741AF894FFCF5C
:1034EC00010100000000000000CF064503710370CD
:1034FC000368690047616D65204F766572007075D1
:10350C006E6B7400537461727400496E73747275CF
:10351C006374696F6E7300796F7500636F6C6C65A3
:10352C0063742074686573650061766F69642074D8
:10353C0068657365000D0A004C4F4144455200000C
:00000001FF
