:100000000C94BD030C94E5030C94E5030C94E503F8
:100010000C94E5030C94E5030C94E5030C94E503C0
:100020000C94E5030C94E5030C94E5030C9455063D
:100030000C94E5030C94E5030C94E5030C94E503A0
:100040000C940B060C94E5030C94E5030C94E50367
:100050000C94E5030C94E5030C94E5030C94E50380
:100060000C94E5030C94E5030101FF030101F70380
:100070006C00680000000000240027002A00000037
:100080000000250028002B000500893008023802F6
:100090004978681400000500680138010000050077
:1000A00038016801000005077F4141417F3E5B4FF9
:1000B0005B3E3E6B4F6B3E183C783C18183C7E3CD8
:1000C000181C577D571C1C5E7F5E1C007E43437EC0
:1000D000007E73737E007E7F7F7E7F4141417F3053
:1000E000483A060E06297929067F4141417F607012
:1000F0003F02042A1C361C2A7F3E1C080000081CF4
:100100003E7F14227F22143C3C3C7EFF18423C81FF
:100110007E3E6375633E3E616B633E3E636B6B3E4A
:1001200004027F020410207F201008082A1C0808FF
:100130001C2A0808143E554122637569756310181E
:100140001C1810040C1C0C04000000000000005FD0
:1001500000000007000700147F147F14042A7F2A80
:100160001023130864623649562050000807030024
:10017000001C2241000041221C002A1C3E1C2A08AF
:10018000083E080800E06000000808080808006051
:1001900060000060100804033E5149453E00427F64
:1001A000400062514949462141494D331814127F9C
:1001B0001027454545393C4A494930412111090735
:1001C0003649494936064949291E000024000000E5
:1001D0008064000008142241001414141414004117
:1001E00022140802015909063E415D594E7C121144
:1001F000127C7F494949363E414141227F4141229B
:100200001C7F494949417F090909013E4141513259
:100210007F0808087F00417F41002041413F017F66
:10022000081422417F404040407F020C027F7F0241
:1002300004087F3E4141413E7F090909063E416174
:1002400041BE7F09192946264949493201017F01EA
:10025000013F4040403F1F2040201F3F4038403F6B
:10026000631408146303047804036151494543008F
:100270007F41410003040810600041417F000402F7
:10028000010204808080808000030708002054540D
:1002900078407F284444383844444428384444282B
:1002A0007F3854545418087E09090218A4A49C7875
:1002B0007F0804047800447D4000006080847D7FD6
:1002C0001010284400417F40007C047804787C08AA
:1002D0000404783844444438FC182424181824248E
:1002E00018FC7C080404080854545420043F444477
:1002F000203C4040207C1C2040201C3C4020403CB6
:1003000044281028444C9090907C4464544C440001
:100310000836410000007F00000041360800180444
:1003200008100C7F4141417F696E7374727563746C
:10033000696F6E7300737461727400200B00007338
:10034000800000528067FFDEC0F4545440F5554EE3
:10035000C065555680055556800445568005FFFFFB
:1003600080050000000700000061766F696420745A
:100370006865736500636F6C6C6563742074686591
:10038000736500796F7500175344001613780016D3
:100390001314001510200015201000540A03E181E9
:1003A000867F3E186D830F0F0E0183866033186DB4
:1003B000C3198F1803C38E6033186DE330CF180351
:1003C000C39E603630CDE360CF3006C79E7E3E30A0
:1003D000CDB360CF300CC6F6603330D9B660CF33C2
:1003E000CFCCF66061B0DB1E60CF30D86CE6C06168
:1003F000B0DB1E618F19986CC6C063B19B0E330FC2
:100400000FB078C6FF7E1F1B061E0F401D000000A8
:1004100000000000000000000000000000000000DC
:1004200000000000000000000000000000000000CC
:1004300000000000000000000000000000000000BC
:1004400000000000000000000000FC3F0000000071
:100450000000FC3F000000000000CC330000000062
:100460000000CC330000F0FFFFFFCFF3C000F0FF2F
:10047000FFFFCFF3C003FCC0CCC0CCC0C003FCC0A6
:10048000CCC0CCC0C003FCCCCCCCC3F3C003FCCCF0
:10049000CCCCC3F3C000F0CCCCCCCCF30000F0CC7F
:1004A000CCCCCCF3000000CCCCCCCCF3000000CC06
:1004B000CCCCCCF3000000C0C0CCCCF3000000C01A
:1004C000C0CCCCF3000000CFFFFFFFFF000000CF47
:1004D000FFFFFFFF000000CC00000000000000CC88
:1004E00000000000000000FC00000000000000FC14
:1004F000000000000000450068010000F6E8DBCFC6
:10050000C3B8AEA49B928A827B746E68625C5752B9
:100510004E4945413E3A3734312E2C292725232197
:100520000A0A153A49676E6F7265006D560A0A50DD
:100530004C45415345205455524E204F46462000CD
:100540004C4F572042415454455259212000030535
:100550003F213F1208120A100A0E1C0E0C1E0C142A
:100560001A14161F161E131E1E1B1E1E1F1E3F21B1
:100570003F3A2F3A173D173F213F181F02040A0444
:100580001F0E04040E1F0A1F0A0E0E1F04110E2E4A
:10059000252E2F2A2E262929021F02081F08150E94
:1005A00004040E150E15151B151B040604040C047B
:1005B0000000000017000300031F0A1F16371A1956
:1005C00004130A153A000300000E11110E000A046C
:1005D0000A040E0400300004040400100018040390
:1005E0001F111F121F101D151711151F07041F17AC
:1005F000151D1F151D01011F1F151F17151F000AAF
:1006000000003200040A110A0A0A110A0401150244
:100610000E11171E051E1F150A0E110A1F110E1F9F
:1006200015111F05010E111D1F041F111F110810A8
:100630000F1F041B1F10101F061F1E040F0E110E8C
:100640001F09060E112E1F051A121509011F011F81
:10065000101F0F180F1F0C1F1B041B031C03191561
:1006600013001F11030418111F0002010220202093
:100670000001020C121E1F120C0C12120C121F0C85
:100680001A14041E05242A1E1F021C141D102020EB
:100690001D1F0814111F101E041E1E021C0C120C1C
:1006A0003E0A040C123E1E040214160A020F120E19
:1006B000101E0E100E1E081E120C1226281E322AA4
:1006C00026041E21001F00211E040102013F213FBC
:1006D000172B152010204C4F4144455200172B1664
:1006E000201314000A4E6F2053442063617264206B
:1006F0006F720A6E6F204C4F414445522E48455848
:100700000A0A153A45786974001D20466C617368C1
:10071000696E670A20206C6F616465722E2E2E0A46
:100720000A444F4E2754205455524E204F464621DE
:100730000000000000230026002900040404040433
:10074000040404020202020202030303030303017E
:100750000204081020408001020408102001020455
:100760000810200000000800020100000304070038
:100770000000000000000000CB1911241FBECFEFC5
:10078000D8E0DEBFCDBF11E0A0E0B1E0EEE5F8E3D8
:1007900002C005900D92A832B107D9F725E0A8E272
:1007A000B1E001C01D92AB32B207E1F713E0CDEB2F
:1007B000D3E004C02197FE010E94221CCC3BD1074C
:1007C000C9F70E94E5130C942D1C0C940000CF92E5
:1007D000DF92EF92FF920F931F93CF93DF936C0101
:1007E0007A018B01C0E0D0E0CE15DF0589F0D80199
:1007F0006D918D01D601ED91FC910190F081E02D7C
:10080000C6010995892B11F47E0102C02196ECCF17
:10081000C701DF91CF911F910F91FF90EF90DF9073
:10082000CF900895089580E090E008950E94281CDC
:10083000DC01ED91FC910190F081E02D0994EF92A3
:10084000FF920F931F93CF93DF938C017B01C0E046
:10085000D0E0F701EC0FFD1F6491662361F0D80131
:10086000ED91FC910190F081E02DC8010995892B53
:1008700011F02196EECFCE01DF91CF911F910F9114
:10088000FF90EF9008956115710579F0FB010190DB
:100890000020E9F73197AF01461B570BDC01ED91C2
:1008A000FC910280F381E02D099480E090E00895AE
:1008B0004F925F926F927F92EF92FF920F931F93EE
:1008C000CF93DF93CDB7DEB7A1970FB6F894DEBF15
:1008D0000FBECDBF7C01FA01CB0119A2223008F472
:1008E0002AE08E010F5D1F4F422E512C612C712C7E
:1008F000BF01A30192010E94831AF901CA010150AC
:1009000011096A3014F4605D01C0695CD8016C9310
:10091000232B242B252B61F7B801C7010E94430428
:10092000A1960FB6F894DEBF0FBECDBFDF91CF9179
:100930001F910F91FF90EF907F906F905F904F907D
:100940000895833081F028F4813099F08230A1F04D
:1009500008958730A9F08830B9F08430D1F48091BF
:1009600080008F7D03C0809180008F77809380000E
:10097000089584B58F7702C084B58F7D84BD0895B6
:100980008091B0008F7703C08091B0008F7D8093FD
:10099000B00008951F93CF93DF93282F30E0F90123
:1009A000ED59F84F8491F901E15BF84FD491F901C9
:1009B000E55CF84FC491CC23C9F0162F81110E9439
:1009C000A104EC2FF0E0EE0FFF1FE258FF4FA591BE
:1009D000B4918FB7F894111105C09C91ED2FE0955B
:1009E000E92302C0EC91ED2BEC938FBFDF91CF9107
:1009F0001F910895CF93DF9390E0FC01E15BF84FE6
:100A00002491FC01E55CF84F8491882361F190E02A
:100A1000880F991FFC01EC58FF4FC591D491FC0140
:100A2000E258FF4FA591B491611109C09FB7F894A6
:100A30008881209582238883EC912E230BC062301D
:100A400061F49FB7F8943881822F8095832388833F
:100A5000EC912E2B2C939FBF06C08FB7F894E881A2
:100A60002E2B28838FBFDF91CF9108951F93CF93B3
:100A7000DF93182FEB0161E00E94FA04209711F434
:100A800060E004C0CF3FD10539F461E0812FDF91F0
:100A9000CF911F910C94CA04E12FF0E0ED59F84F6B
:100AA000E491E330F9F048F4E130B9F0E230A1F537
:100AB00084B5806284BDC8BD34C0E730E9F0E83059
:100AC00019F1E43049F580918000806280938000C4
:100AD000D0938B00C0938A0024C084B5806884BD05
:100AE000C7BD1FC080918000806880938000D09334
:100AF0008900C093880015C08091B0008068809301
:100B0000B000C093B3000DC08091B00080628093AC
:100B1000B000C093B40005C0C038D1050CF0B5CF0B
:100B2000AFCFDF91CF911F9108958E3008F08E5096
:100B30008770806480937C0080917A0080648093C9
:100B40007A0080917A0086FDFCCF80917800209118
:100B5000790090E0922B08953FB7F894809191022C
:100B600090919202A0919302B091940226B5A89B15
:100B700005C02F3F19F00196A11DB11D3FBFBA2F2F
:100B8000A92F982F8827820F911DA11DB11DBC018F
:100B9000CD0142E0660F771F881F991F4A95D1F754
:100BA00008958F929F92AF92BF92CF92DF92EF9271
:100BB000FF926B017C010E94AC054B015C01C114EA
:100BC000D104E104F104F1F00E94AC05DC01CB0199
:100BD00088199909AA09BB09883E9340A105B10566
:100BE00070F321E0C21AD108E108F10888EE880EFE
:100BF00083E0981EA11CB11CC114D104E104F104CE
:100C000019F7DDCFFF90EF90DF90CF90BF90AF90BE
:100C10009F908F9008951F920F920FB60F921124FC
:100C20002F933F938F939F93AF93BF9380919A029B
:100C300090919B02A0919C02B0919D0230919002F4
:100C400023E0230F2D3720F40196A11DB11D05C00F
:100C500026E8230F0296A11DB11D209390028093D8
:100C60009A0290939B02A0939C02B0939D02809164
:100C7000910290919202A0919302B09194020196F8
:100C8000A11DB11D8093910290939202A0939302B3
:100C9000B0939402BF91AF919F918F913F912F910B
:100CA0000F900FBE0F901F9018951F920F920FB6C6
:100CB0000F9211242F936F937F938F939F93609143
:100CC0009702662359F180918F028F5F80938F0284
:100CD00090919802891710F12091950281E02827C0
:100CE0002093950210928F0280919902882369F0D7
:100CF0008091000193E4899F802D1124895B80936A
:100D000000010E94EE1B90939602222329F080910D
:100D100096028093B40002C080E0FBCF9F918F9138
:100D20007F916F912F910F900FBE0F901F9018958C
:100D3000FC0161110DC0178A158A14A213A2108E2E
:100D40001092960210929702109295021092B4009F
:100D50000895EF92FF920F931F93CF93DF931F920B
:100D6000CDB7DEB77C018B01411105C060E049833E
:100D70000E949806498150E0FA01EE0FFF1FEE0D28
:100D8000FF1D16870587DA011996AA0FBB1FAE0D46
:100D9000BF1D1D921C92F701E40FF51F81E08183B6
:100DA00089E0868B118E138E158E0F90DF91CF9177
:100DB0001F910F91FF90EF900895DC01FB0184914A
:100DC0008F5F14968C9314973196E491EF5F15968C
:100DD000EC9315976E5F7F4F5F967C936E935E9753
:100DE00008954F925F926F927F928F929F92AF92EF
:100DF000BF92CF92DF92EF92FF920F931F93CF9308
:100E0000DF93F901C49031965491EC0108A1643547
:100E10000CF018C10C2C000CDD08A62F062E000CBF
:100E2000BB0B7D01EC0CFD1C1E141F040CF00AC151
:100E300040330CF007C1A52E842E042E000C990817
:100E4000F401E50FF11D57FDFA951E161F060CF073
:100E5000F9C02E5F3F4FE6012796D7FD279673E036
:100E6000D595C7957A95E1F747FF0AC0A52EA40E40
:100E7000C89DA001C99D500D1124241B350B40E0D5
:100E8000EA2D0A2C000CFF0BE40FF11D47FDFA952B
:100E9000F1971CF050E3A52EA41A67FD60E0F7015E
:100EA000E535F10514F0E4E5F0E07E2FFC01D48493
:100EB000D426862F062E000C990BFC01EA1BFB0B97
:100EC000DF017F01F7E0EF22FF24E0E8F0E002C05D
:100ED000F595E795EA94E2F71E2FB7FD179653E0D4
:100EE000B595A7955A95E1F72A0F3B1FE42FE770B8
:100EF00051E001C0550FEA95EAF7459545954595AE
:100F0000B4E54B02800D911D112482569D4FC12CDA
:100F10000A2C000CBB08992493942E015524EC2D27
:100F2000F0E0EA15FB050CF08DC0F90144910130A9
:100F3000E1F47C01A12F862E881AB82DBE0DB717BB
:100F400008F077C0B42FBA2321F0E701B881B52BA0
:100F5000B883B0E0B595A795109719F431964491F0
:100F6000A0E8DFEFED1AFD0AE8CF01111FC0752ED2
:100F700070947C01A12FF901862E881AB82DBE0D20
:100F8000B71708F056C0B42FBA2321F0E701B88193
:100F9000B721B883B0E0B595A795109719F43196AD
:100FA0004491A0E8DFEFED1AFD0AE8CF033031F0FD
:100FB0007C01A12FF901862E881A37C0752E7094F6
:100FC000862E7C01A12FF9018716D8F4B42FBA23FD
:100FD00059F0E701B881682C6D2460FE02C0B52B82
:100FE00002C0B721E701B883B0E0B595A795109787
:100FF00019F431964491A0E88394DFEFED1AFD0ACD
:10100000E3CFD92416C0B42FBA2321F0E701B88169
:10101000B527B883B0E0B595A795109719F4319628
:101020004491A0E8DFEFED1AFD0AB82DBE0DB71709
:1010300050F3550F19F48C5A9F4F51E0C394240D6F
:10104000351D6DCFDF91CF911F910F91FF90EF90E4
:10105000DF90CF90BF90AF909F908F907F906F90D8
:101060005F904F900895FC01643508F053C0403301
:1010700008F050C090A1742F759575957595262F21
:10108000062E000C330B542F57709230A1F4F90147
:10109000E256FD4F84E57802E00DF11D11248081B8
:1010A00090E0052E02C0959587950A94E2F7809509
:1010B000982F91700AC0933041F48485817046273F
:1010C00040954170841303C014C0911112C084E58F
:1010D0007802200D311D1124F901E256FD4F81E007
:1010E00090E001C0880F5A95EAF780959081892396
:1010F00010C084E57802200D311D1124F901E2565B
:10110000FD4F81E090E001C0880F5A95EAF7908189
:10111000892B80830895DF92EF92FF920F931F93A4
:10112000CF93DF931F92CDB7DEB78C01D62EF42E6E
:10113000E12CE21654F46E2D6D0D4F2DC80129835C
:101140000E943308E3942981F4CF0F90DF91CF916F
:101150001F910F91FF90EF90DF900895DF92EF9233
:10116000FF920F931F93CF93DF937C01D62FD22E44
:10117000C42F002E000C110B040F111D47FD1A95F2
:101180004C2F0C2E000C550B4017510744F42D2DFD
:101190004C2F6D2FC7010E948B08CF5FF1CFDF91DD
:1011A000CF911F910F91FF90EF90DF9008956F9274
:1011B0007F928F929F92AF92BF92CF92DF92EF92E7
:1011C000FF920F931F93CF93DF93EC016A3019F4D2
:1011D0002D819885A1C06D3009F4A4C01885BA840A
:1011E000D98488A083E58D150CF47FC08FE28B1520
:1011F0000CF47BC08C8190E00197189F9001199F9F
:10120000300D1124C9018D0D911DD7FC9A9518162A
:1012100019060CF06AC08D81819FC00111248B0DCD
:10122000911DB7FC9A95181619060CF05EC09D2CFE
:10123000CD2CE62EF12CEC2DED190E2E000CFF0B13
:101240008C8190E0E817F9070CF04EC00197E81781
:10125000F90779F0E89E9001E99E300DF89E300D77
:101260001124E20FF31F8E8D9F8DE80FF91F7490EC
:1012700001C0712C6B2CAB2C2A2D2B19022E000CCB
:10128000330B8D8190E0281739075CF570FE10C094
:10129000113031F44A2D6C2DCE010E9433081DC04F
:1012A000012F212F462D692DCE010E94AE0815C0B9
:1012B00089A198A1891789F088A3113031F44A2DAA
:1012C0006C2DCE010E94330807C0012F212F462D1F
:1012D000692DCE010E94AE0888A27694A394610E77
:1012E000CBCFC394910EA7CF88A228853C81898556
:1012F000329F800D112489879F81992399F0082EB0
:10130000000C990B44E550E0239F4019510911242A
:10131000481759073CF49D818A85299F800D112427
:101320008A87198681E090E0DF91CF911F910F911C
:10133000FF90EF90DF90CF90BF90AF909F908F90F5
:101340007F906F900895CF93DF93EC010E942D1A48
:1013500025E430E040E050E00E94511ADC01CB016E
:101360000296A11DB11D88830E942D1A2AE230E049
:1013700040E050E00E94511ADC01CB010296A11D11
:10138000B11D8983DF91CF9108956EE475E082EFFE
:1013900094E00E94DD068CE48093FB0481E080935E
:1013A000FC04809129018A3028F460E382EF94E004
:1013B0000E9418044091290150E060E070E02AE0AA
:1013C00082EF94E00C9458040F93CF93DF930E9424
:1013D0000F110E948210C0E0D7E080912A01C81747
:1013E00048F4DC9FC0011124855D9E4F0E9471105E
:1013F000CF5FF3CF81E0809312058093130500E364
:1014000029E040E06BE482EF94E00E94AE08109285
:101410001205109213050E94C5096EE475E082EF73
:1014200094E00E94DD06CCE4C093FB0484E2809348
:10143000FC046BE171E082EF94E00E944304C093EE
:10144000FB048AE28093FC04809128018A3028F40E
:1014500060E382EF94E00E9418044091280150E07C
:1014600060E070E02AE082EF94E0DF91CF910F918D
:101470000C945804CF92DF92EF92FF920F931F9338
:10148000CF93DF9380911405882309F4C6C081E0CF
:101490008093FA041092F9041092F8041092BC049C
:1014A0008093120580931305C5EFD4E01CE00E94E1
:1014B000210C8823E1F3FE018491882319F0009127
:1014C000F70401C000E02BE933E040E060E082EF88
:1014D00094E00E94F1064CE0400F2BE034E060E025
:1014E00082EF94E00E94F1061092FB041093FC043A
:1014F00065EF74E082EF94E00E941F048091F6048F
:10150000982F990F890F81958D5A8093FB048091B4
:10151000F704982F990F890F8195835D8093FC04C0
:101520008091150584FF03C087E993E002C083E939
:1015300093E00E9409128091F604982F990F890F69
:1015400081958D5A8093FB048091FC048F5F80937A
:10155000FC048091CE04882319F08FE893E002C048
:101560008BE893E00E9409128091F604982F990F5E
:10157000890F81958D5A8093FB048091FC048F5FC5
:101580008093FC0487E893E00E9409128091BA04DA
:101590008130C9F48091CE048F5F6091CF0487FDC4
:1015A00009C0082E000C990B70E06F5F7F4F0E94FE
:1015B000FA1B682F6093CE0440E066EF74E089EC7C
:1015C00094E00E94A9068091B9048130A9F080912D
:1015D0001405482F50E060E070E0C0901505D090F1
:1015E0001605E0901705F0901805C416D506E60616
:1015F000F70638F18F3F29F18FEF8093140560E0F3
:1016000089EC94E00E9498061092CA0440E06EE9CA
:1016100070E089EC94E00E94A90681E280932305A2
:1016200081E08093CD041092BC0482E08093890213
:10163000DF91CF911F910F91FF90EF90DF90CF90AE
:1016400008958091BB04813009F031CF0E941C12B3
:101650002ECF0F931F93CF93DF93EC012A818B81C1
:101660009C81AD81BE81222309F446C08A019B0181
:10167000081B190B2A0B3B0BC901B80122ED30E006
:1016800040E050E00E94831A69327105810591059E
:1016900018F4605F688375C069367105810591052E
:1016A00088F46952710989E3860F669F9001679FEC
:1016B000300D300D112466E0359527956A95E1F7D8
:1016C000821B06C0623971052CF422EA822F861B28
:1016D000888357C06259710980E1282F261B669FB5
:1016E000C001679F900D900D112456E09595879548
:1016F0005A95E1F7820FECCF8A019B01081B190B69
:101700002A0B3B0BC901B8012CE930E040E050E066
:101710000E94831A6E3071058105910518F4605F8F
:1017200069832FC06E3471058105910588F46E5070
:1017300071098EE1860F669F9001679F300D300D15
:10174000112446E0359527954A95E1F7821B18C08C
:101750006C35710524F42CE6822F861B11C06C5564
:10176000710980E1282F261B669FC001679F900D9D
:10177000900D112436E0959587953A95E1F7820F03
:101780008983DF91CF911F910F910895CF92DF92BE
:10179000EF92FF920F931F93CF93DF93EC016A01B7
:1017A0007B01122F0E942D1A2BE730E040E050E021
:1017B0000E94511A21E060337105810591050CF0FA
:1017C00020E02A832223B9F00E942D1A2EE230E075
:1017D00040E050E00E94511A6983D701C6011632D9
:1017E00028F489549109A109B1091AC0825B9109B1
:1017F000A109B10915C00E942D1A29E430E040E08A
:1018000050E00E94511A6883D701C601093120F4C3
:101810008E97A109B10904C08C579109A109B1099A
:101820008B839C83AD83BE83B701A601CE01DF917C
:10183000CF911F910F91FF90EF90DF90CF900C947C
:10184000290B4F925F926F927F928F929F92AF92ED
:10185000BF92CF92DF92EF92FF920F931F93CF939D
:10186000DF9300D000D01F92CDB7DEB740912405A2
:101870005091250560912605709127052FB7F894A2
:1018800080919A0290919B02A0919C02B0919D023E
:101890002FBF481B590B6A0B7B0B8091230590E0EF
:1018A000A0E0B0E000911F051091200520912105D6
:1018B0003091220584179507A607B70730F4011564
:1018C00011052105310509F02AC3012B022B032B39
:1018D00009F023C38091BB0481508E3F30F5809185
:1018E000BA04813039F58091CE048F5F6091CF04C6
:1018F00087FD09C0082E000C990B70E06F5F7F4FC9
:101900000E94FA1B682F6093CE048DED96E09093B1
:1019100029058093280588E480932A0540E066EF36
:1019200074E089EC94E00E94A9068091BB04815088
:101930008E3F70F48091B904813009F09CC380ED32
:1019400096E0909329058093280588E480932A05E2
:1019500080E00E9453128091CA04882309F4ADC02C
:101960008091DE048111A9C08091D6049091D704A2
:10197000E091DB04F091DC04EE0FFF1FE80FF91F8C
:10198000459154914115510501F52091DA04222326
:1019900031F01092DC041092DB04FC0114C01092B0
:1019A000CA048091C904882341F080E00E94531248
:1019B000E091DB04F091DC042FC060E089EC94E05E
:1019C0000E9498067AC0459154919A0136952795C0
:1019D0003695279540FF51C0CA0116E09695879528
:1019E0001A95E1F78F71952F96959695969590514A
:1019F0002F70223071F1F8F4211117C08B3008F0EC
:101A00008AE08093DF04E091DB04F091DC043196FE
:101A1000F093DC04E093DB04EE0FFF1F8091D6040B
:101A20009091D704E80FF91FCECF213061F760E025
:101A30000E949412E8CF2330B1F0243021F7209196
:101A4000CD04829F802D11248093E6049093E704B7
:101A5000DACF2091CD04829F802D11248093E2045F
:101A60009093E304D0CF2091CD04829F802D112448
:101A70008093E4049093E504C6CF2F732093DD0494
:101A80008091CD04859F802D11248093DE041092D7
:101A9000EE041092ED041092EC0481E08093E004D7
:101AA000809395021092E1048091DB049091DC0414
:101AB00001969093DC048093DB048091E0048823FA
:101AC00009F4F3C08091DE04811106C060E089EC66
:101AD00094E00E949806E9C081508093DE048091D2
:101AE000EE04811148C02091EC043091ED042F5F89
:101AF0003F4FC901880F991FE091E804F091E90474
:101B0000E80FF91F65917491862F87708093EF0419
:101B1000AB01E3E056954795EA95E1F7CA01969542
:101B20008795972F969596959093F0048F73909143
:101B3000CD04899F802D11248093EE044170409341
:101B400099023093ED042093EC048091EA0490E034
:101B50002817390780F02091EB04222339F0821BEB
:101B600091099093ED048093EC0405C060E089EC4A
:101B700094E00E9498068091EE0481508093EE04D8
:101B80008091E10421E0280F2093E1044091DD04DD
:101B90003091F004340F8091D504380F3093CB048A
:101BA0006091E404662371F070E0822F022E000C35
:101BB000990B0E94FA1B8091E504869F300D112439
:101BC0003093CB048091CB0490E0849664E270E083
:101BD0000E94FA1B8093CB043091DF043093CC0435
:101BE0006091E204662381F0062E000C770B822FB1
:101BF000022E000C990B0E94FA1B8091E304869F31
:101C0000300D11243093CC046091E6046623A1F0DA
:101C1000822F220F990B70E00E94FA1BCB0162E029
:101C200070E00E94FA1B2091E7049091CC04289F59
:101C3000900D11249093CC048091CC044F3341F04B
:101C40008A300CF089E087FD80E08093CC0402C0EC
:101C50001092CC04F894E091CB04F0E0E450FB4FF8
:101C6000E491E09398023091CC042091F104320386
:101C7000900111244091EF044203C001439F900D55
:101C800011240090CE0402C0880F991F0A94E2F735
:101C900097FF02C081589F4F880F892F881F990B8B
:101CA0008093970280939602789480912A058823E6
:101CB00009F484C08C3020F49CE0E92EE81A01C0BD
:101CC000E12CFF24F394F092FA0410921205109282
:101CD00013053091F7044DE2D42E1D2D131B1E0D5C
:101CE00003E0030F2EE4412F63E082EF94E03D8395
:101CF0000E94AE083D810CEF030F1D5F202F41E0D5
:101D0000612F80E50E944D13202F42E0612F83E078
:101D10000E944D13F0921205F09213050091F70402
:101D2000FD2CF01AFE0C2EE44F2D63E082EF94E0C0
:101D30000E948B0813E0100F1F0D4FEF410F2EE490
:101D400063E082EF94E00E948B08035033E0F30ECF
:101D5000402F6F2D80E00E94F710402F6F2D83E5FC
:101D60000E94F71041E06F2D83E00E94CF1242E005
:101D70006F2D80E50E94CF12145044E0612F80E562
:101D80000E94CF1248E0612F83E00E94CF1284E0CE
:101D90008093FB048091F704E81A8E2D815D809377
:101DA000FC04609128057091290582EF94E00E945F
:101DB0001F0480912A05815080932A058091C004D8
:101DC0009091C104892B09F480C011E01093120591
:101DD000109213059091F60485E5891B8093FB040E
:101DE0001092FC046091BD04613009F44FC030F0E2
:101DF0008091BC04653008F061C05CC060E089EC93
:101E000094E00E9498061092CA041093FA046EE4BB
:101E100075E082EF94E00E94DD061092C1041092FA
:101E2000C0041092F80418EA0E94210C8823E1F300
:101E300060E475E082EF94E00E941F044091BE04CC
:101E40005091BF0460E070E02AE082EF94E00E94CD
:101E500058046BE275E082EF94E00E941F04412F6A
:101E600042954F7050E060E070E02AE082EF94E02D
:101E70000E94580460E275E082EF94E00E941F0423
:101E80008091B904813009F0FCC01FC08091150514
:101E900090911605A0911705B09118058F7099279C
:101EA000AA27BB270897A105B10510F467E009C070
:101EB00068E707C0882349F06B5F03C0882329F0D7
:101EC0006FE282EF94E00E9418040E94C911809191
:101ED000F80481110EC088EF91E0EEE9F2E0DF0135
:101EE0009C011D9221503040E1F71092FB041092AA
:101EF000FC040E94AC0560931F057093200580933D
:101F000021059093220520911B0530911C05621B31
:101F1000730B70931A056093190580E0CCC02FB73E
:101F2000F89480919A0290919B02A0919C02B091AA
:101F30009D022FBF20912305820F911DA11DB11D70
:101F40008093240590932505A0932605B09327053B
:101F50008091150590911605A0911705B09118056F
:101F60000196A11DB11D8093150590931605A093B0
:101F70001705B093180510921F05109220051092B6
:101F80002105109222050E94AC0560931B057093F9
:101F90001C0580931D0590931E058091A5049091CA
:101FA000A6042FE0289F8001299F100D112485E1B0
:101FB0000E949505800F911F24E0969587952A959C
:101FC000E1F79093A6048093A5042091A404222312
:101FD00009F44BC06091A804262F30E040E050E0A7
:101FE00029833A834B835C83C090A904D12CE12CD4
:101FF000F12C4091AC045091AD044A01A12CB12CBC
:102000002091AA043091AB042901612C712C821714
:10201000930728F09C014817590708F49A01C90151
:10202000A0E0B0E09C01AD0124193509460957092B
:1020300069817A818B819C816C197D098E099F0948
:102040000E94DE1BA5019401241935094609570990
:102050000E94511AC20ED31EE41EF51EC092A704A0
:102060006C2D70E085E00E9436050E9456110E949A
:10207000A81381E020C0893209F06ACC0E941C12AA
:1020800067CC115009F0D0CE60E070E085E00E948E
:10209000360583B7817F846083BF83B7816083BF48
:1020A00083B7816083BF889583B78E7F83BF83B7F3
:1020B0008E7F83BFB9CE0F900F900F900F900F902F
:1020C000DF91CF911F910F91FF90EF90DF90CF9014
:1020D000BF90AF909F908F907F906F905F904F9048
:1020E00008950F9321E0209312052093130502E039
:1020F00022E0FC014181608182EF94E00E94AE0801
:102100000F9108950F93CF93DF9381E08093120591
:1021100080931305C1EAD4E068816F5F04E022E098
:10212000498182EF94E00E94AE0849814F5F02E04E
:1021300024E0688182EF94E00E94AE08DF91CF91A5
:102140000F9108958F929F92AF92BF92CF92DF929C
:10215000EF92FF92C090BE04D090BF04C094D09480
:10216000E12CF12C0E94AC054B015C010E94AC05F6
:10217000A5019401209530954095509560957095F6
:10218000809590950E94DE1B9B01AC01C701B601B2
:102190000E94DE1B4B015C018091A5049091A60476
:1021A0006C01E12CF12C0E94AC05C60ED71EE81E76
:1021B000F91EC701B601680D791D8A1D9B1D6115A9
:1021C00071058105910551F0FF90EF90DF90CF9060
:1021D000BF90AF909F908F900C94321AFF90EF9029
:1021E000DF90CF90BF90AF909F908F9008950F9306
:1021F0001F93CF93DF93182F062FD42FC0E0CD1756
:102200004CF44C2F400F612F82EF94E00E94330872
:10221000CF5FF5CFDF91CF911F910F9108950F936D
:1022200081E0809312058093130502E022E0409143
:102230009F0460919E0482EF94E00E94AE0880911A
:10224000A0048F5F8093A00483FF2EC083E080935F
:1022500012058093130540919F04425060919E04A3
:10226000615024E082EF94E00E948B0840919F042B
:102270004D5F60919E04615024E082EF94E00E94E3
:102280008B0860919F04615080919E0444E08250CD
:102290000E94F71060919F04615080919E0444E079
:1022A0008D5F0F910C94F7100F910895CF92DF92EC
:1022B000EF92FF920F931F93CF93DF93CEEAD4E078
:1022C00005EB14E0FF24FA9497E0E92EE00E62E0BB
:1022D00088810E94FA04288130E0F901ED59F84F15
:1022E0008491F901E15BF84FC490F901E55CF84F86
:1022F000D490DD2071F081110E94A104ED2DF0E059
:10230000EE0FFF1FEF5CF84FA591B491EC91EC211B
:10231000B1F4F80180818F5F808360E088810E9442
:10232000FA0421960F5F1F4FE012D1CFDF91CF91BA
:102330001F910F91FF90EF90DF90CF900895F801DB
:102340008081882371F3F8018F3F11F41082E5CF6B
:10235000F082E3CFCF93C82FF89460E0809101051D
:102360000E94CA048091020518161CF460E00E94C5
:10237000CA04CEBD00000DB407FEFDCF8EB580911E
:10238000020518161CF461E00E94CA047894CF91EB
:1023900008950F931F93CF938091FE048F5F8093D6
:1023A000FE040EE912E0C0E08C2F80640E94AA11A6
:1023B00080E80E94AA1161E0809101050E94CA0490
:1023C0008091020518161CF460E00E94CA0480E0A7
:1023D00090E0F801E80FF91F20812EBD00000DB438
:1023E00007FEFDCF2EB501968435910591F78091BA
:1023F000020518161CF461E00E94CA04CF5F0C5A53
:102400001F4FC63089F680E4CF911F910F910C9435
:10241000AA11CF93DF93BC0182EF94E00E941F04C6
:10242000EC016EE171E082EF94E00E9443048C0FB6
:102430009D1FDF91CF91089588EF91E0EEE9F2E0E2
:10244000DF019C011D9221503040E1F71092FB0406
:102450001092FC0469E077E082EF94E00E941F0490
:102460000E94C9118CB583608CBD8DB58E7F8DBDEA
:1024700081E291E0EEEFFFE309951092F80484EE1B
:1024800096E00E9409120E94C9110E945611809183
:10249000B904813039F062E370E080E090E00E949E
:1024A000D105F3CF0895CF93DF93482F50E0EA0191
:1024B000CC55DB4F9DA19923A1F19EA1911131C073
:1024C0009EA5FA01EE0FFF1FE555FB4F35A126A192
:1024D000E32FF22FE90FF11DE90FF11D2591349142
:1024E0002F3F9FEF390711F41DA21BC039AB440FDA
:1024F000551FFA01E255FB4F3327220F331F05A06A
:10250000F6A1E02DE20FF31F65917491811105C0D2
:1025100040E089EC94E00E94A90629968DA18F5F86
:102520008DA3DF91CF91089570E0DB01AA0FBB1F4F
:10253000AC55BB4FD4962C91D497D5969C91D597FA
:10254000E22FF92FE80FF11DE80FF11D25913491CD
:102550005F9696963C932E939597F9018591949169
:102560009091CD04989F802D11246C557B4FFB01D9
:10257000B19685A3F901A591B4914B2F50E0E82FB6
:10258000F0E04E175F0720F4F90125913491832F75
:10259000FB01B296899F802D112485A30895AF92E7
:1025A000BF92CF92DF92EF92FF920F931F93CF9340
:1025B000DF93182F062FC1E0D3E08AEFD82E9EEFCD
:1025C000E92E842F8470C82E842F8270B82E842F19
:1025D0008870A82E4170F42E8C2F880F8F5FE80E24
:1025E000CC2081F04D2F400F6C2F610F82EF94E0D3
:1025F0000E9433084C2F400F6D2F610F82EF94E043
:102600000E943308BB2081F0402F4D1B6C2F610FBF
:1026100082EF94E00E943308402F4C1B6D2F610F16
:1026200082EF94E00E943308AA2081F04C2F400FE3
:10263000612F6D1B82EF94E00E9433084D2F400FF5
:10264000612F6C1B82EF94E00E943308FF2081F021
:10265000402F4C1B612F6D1B82EF94E00E943308CA
:10266000402F4D1B612F6C1B82EF94E00E943308BA
:10267000CD1744F4E7FC04C0D150D394D394ED0CAF
:10268000CF5FAACFDF91CF911F910F91FF90EF9075
:10269000DF90CF90BF90AF9008959F92AF92BF927E
:1026A000CF92DF92EF92FF920F931F93CF93DF931E
:1026B000F82EE62EB22E03E0020FD0E0C3E08AEF40
:1026C000C82E1EEF842F8170982EAA24A394A20EE8
:1026D0004270D42EDF5F802F8B19180F992081F064
:1026E0004C2F440F4A0D6E2D6C1B8D2F8F0D0E94A9
:1026F000F710402F6E2D6D1B8C2F8F0D0E94F71041
:10270000DD2081F04C2F440F4A0D6E2D6C1B8F2D58
:102710008D1B0E94F710402F6E2D6D1B8F2D8C1B73
:102720000E94F710DC1744F417FD04C0C150C39495
:10273000C3941C0D0E5FCECFDF91CF911F910F91EF
:10274000FF90EF90DF90CF90BF90AF909F90089553
:102750008091C0049091C104892BB1F18091C8048B
:102760008F7169F584E10E949505BC01990F880B72
:10277000990B0E94E51A26EE3FE34EEC50E40E94CE
:10278000491B0E94B41A9B017093BF046093BE045E
:10279000672B91F084E08093BD04E0ECF4E080E0EE
:1027A000419151912417350718F48093BD04089581
:1027B0008F5F8430A9F703C08FEF8093BD048091B1
:1027C000C8048F5F8093C8040895CF93DF9300D02F
:1027D00000D0CDB7DEB7789484B5826084BD84B56F
:1027E000816084BD85B5826085BD85B5816085BD0C
:1027F00080916E00816080936E00109281008091C4
:10280000810082608093810080918100816080934B
:102810008100809180008160809380008091B10070
:1028200084608093B1008091B00081608093B0009B
:1028300080917A00846080937A0080917A0082602F
:1028400080937A0080917A00816080937A008091F1
:102850007A00806880937A001092C10082E38093AE
:10286000230581E090E0A0E0B0E080931F05909305
:102870002005A0932105B09322058FEF80931405C6
:10288000E0E8F7E7259134912130304C09F049C058
:10289000E6E9F7E7E491E093FD04E7E9F7E7E4917F
:1028A000E093A804E8E9F7E7E491E093A904E9E9F3
:1028B000F7E7859194919093AB048093AA04EBE998
:1028C000F7E7859194919093AD048093AC0488E0F0
:1028D0008093CF04EEE9F7E7E491E093CE04EFE9CB
:1028E000F7E7E491E0931405E0EAF7E78591949126
:1028F0009093C1048093C004E2EAF7E78591949134
:102900009093C3048093C204E4EAF7E7859194911D
:102910009093C5048093C404E6EAF7E78591949107
:102920002CC09CE39093FD041092A8048093A9040A
:1029300080E293E09093AB048093AA0484ED93E04B
:102940009093AD048093AC0488E08093CF0480938F
:10295000CE048CEA9DE09093C1048093C0048EED78
:102960009DE09093C3048093C20484E79EE090931B
:10297000C5048093C4048CE39FE09093C7048093C4
:10298000C60411E01093A4046FEF70E085E00E948C
:10299000360588E08093AE0489E08093AF0487E039
:1029A0008093B00486E08093B10404E00093B20405
:1029B00082E08093B30481E18093B4040E945611B5
:1029C0008CE39FE09093BF048093BE040093BD040A
:1029D0001093C8048BE0809300058DE08093FF0482
:1029E00080E1809301058EE0809303058FE0809362
:1029F00002051093FA041093120510921305109318
:102A0000F9046EE475E082EF94E00E94DD061FB7E2
:102A1000F89480918A02811127C0E5E4F7E084915F
:102A2000E9E5F7E09491E82FF0E0EE0FFF1FEC5896
:102A3000FF4FA591B491EC91E92321F461E08AE084
:102A40000E94CA0461E08AE00E94FA048CB58061A9
:102A50008CBD8CB580648CBD61E08DE00E94FA0471
:102A600061E08BE00E94FA0480918A028F5F80937C
:102A70008A021FBF8CB58F7D8CBD8CB58C7F816029
:102A80008CBD8DB581608DBD8CB58C608CBD61E0D9
:102A9000809100050E94FA0461E08091FF040E9489
:102AA000FA0461E0809101050E94FA048091030517
:102AB00018161CF461E00E94FA04809102051816B1
:102AC0001CF461E00E94FA0480910305181674F466
:102AD00060E00E94CA046AE070E080E090E00E943A
:102AE000D10561E0809103050E94CA048091FF0432
:102AF000082E000C990BFC01E55CF84FE491F0E026
:102B0000EE0FFF1FE258FF4F2591349130930705D8
:102B100020930605FC01E15BF84FE491E0930D057D
:102B200080910005082E000C990BFC01E55CF84F24
:102B3000E491F0E0EE0FFF1FE258FF4F2591349132
:102B40003093050520930405FC01E15BF84FE49107
:102B5000E0930C0580910205082E000C990BFC01F6
:102B6000E55CF84FE491F0E0EE0FFF1FE258FF4FF5
:102B7000259134913093090520930805FC01E15B10
:102B8000F84FE491E0930E0580910105082E000CAA
:102B9000990BFC01E55CF84FE491F0E0EE0FFF1FAC
:102BA000E258FF4F2591349130930B0520930A058D
:102BB000FC01E15BF84FE491E0930F0581E20E9494
:102BC000AA1184E10E94AA118091FD0487FF03C02D
:102BD0008FE78093FD048091FD0480680E94AA1114
:102BE00080E20E94AA118CE00E94AA110E94C911E1
:102BF00081E08093CD0484E08093F10480E790E04D
:102C00009093D9048093D80460E080E00E949412ED
:102C100061E070E083E00E9436058091B100887F1A
:102C200081608093B100F89410928000109281002E
:102C3000109285001092840088E191E090938900C1
:102C400080938800809181008860809381008091CA
:102C5000810081608093810080916F008260809309
:102C60006F0078940E94A8138091BA04813019F4FF
:102C70001092CE040BC08091BD048823C9F340E0BC
:102C800068E870E089EC94E00E94A9060E943A0A84
:102C900080E090E00E943B1A8A3239F481E090E0B3
:102CA0000E943B1A8093280110C06AE280E090E005
:102CB0000E94431A81E090E00E943B1A882329F089
:102CC00060E081E090E00E94431A67E0A62E70E089
:102CD000C72E70E0D72EE3E0EE2E11E0F9E12F2EA3
:102CE00096E1F92E21E2922E38E1832E40E1B42EB6
:102CF00050E2352E0E94210C882309F4C7C0809130
:102D0000BB04813009F4C9C000918902023009F482
:102D100066C028F4002351F0013089F0B7C00330B9
:102D200009F470C0043009F494C0B0C09091B604A6
:102D300091508091B5049E3F08F0B6C0B1C00E948A
:102D4000E40900931205009313058091150583FD96
:102D50000E94C50907E025E244E163E182EF94E0C7
:102D60000E94AE086EE475E082EF94E00E94DD06FA
:102D7000109212051092130584E18093FB0485E103
:102D80008093FC0461E171E082EF94E00E944304CF
:102D90008091B904813009F0C4C1809115059091EA
:102DA0001605A0911705B091180580938B0290939A
:102DB0008C02A0938D02B0938E02E0928902609102
:102DC000280181E090E06C830E943B1A6C816817B7
:102DD00009F45CC081E090E00E94431A57C08091E2
:102DE000150590911605A0911705B09118058093CF
:102DF0008B0290938C02A0938D02B0938E02E0928E
:102E0000890244C08091B904813009F090C10E94C8
:102E1000A21010922A011092290183E28093A1044A
:102E2000F092A204CE0101960E94A30989819A81A1
:102E3000AB8180939E0490939F04A093A004109272
:102E4000890240E06EE970E089EC94E00E94A906F6
:102E50001DC08091B904813029F08091BA0481307D
:102E600009F01BC28091150590911605A0911705D8
:102E7000B091180580938B0290938C02A0938D02E1
:102E8000B0938E02E09289020E94A210C114D10474
:102E900009F430CF0E94000023CF0E943A0A34CFB9
:102EA00081508E3F40F40EC09091B80491509E3FE7
:102EB00008F004C1D2C08091B70481508E3F08F061
:102EC000C5C0DCC08091A3049BE5980F9093A30438
:102ED000892787FF0EC08091A204882319F08150B2
:102EE0008093A2048091A104882319F081508093DB
:102EF000A10400E080912A010817A0F54091150572
:102F0000509116056091170570911805A09EC0019B
:102F10001124FC01E55DFE4F2F01CF010E94290B1A
:102F20002091A2044091A10450E0F201808190E040
:102F3000BA016C5F7F4F8617970794F40196841748
:102F4000950774F030E0818190E0A9014C5F5F4FFC
:102F5000841795072CF40196821793070CF0CFC0C5
:102F60000F5FC8CF2091A2044091A10450E080914E
:102F70009E0490E0BA016C5F7F4F861797070CF0B4
:102F800062C00196841795070CF45DC030E0809113
:102F90009F0490E0A9014C5F5F4F841795070CF0E8
:102FA00052C00196821793070CF44DC0B2C001962F
:102FB0008417950714F1402F50E080919F0490E012
:102FC000BA016C5F7F4F86179707BCF40196841790
:102FD00095079CF08EE994E00E94A3090091A20459
:102FE0002091A104422F50E080919E0490E0BA010C
:102FF0006C5F7F4F86179707D4F280912A01823346
:1030000098F440911505509116056091170570913F
:10301000180591E0980F90932A01A89EC0011124F1
:10302000855D9E4F0E94C60B80912901843618F45D
:103030008F5F809329018091290190912801981731
:1030400010F4809328010E94E40920CF8091A2040B
:10305000882309F44ECF81500EC081508E3F90F1ED
:103060008091B70481508E3FC0F08091A2048C32D1
:1030700008F03FCF8F5F8093A2043BCF8091A304E1
:103080009BE5980F9093A304892787FF32CF809107
:10309000A204882369F181500EC08091A3049BE5AE
:1030A000980F9093A304892787FF23CF8091A204D0
:1030B0008C32F0F48F5F8093A2041AC081508E3F4F
:1030C00088F410CF8091A3049BE5980F9093A304FC
:1030D000892787FF0ECF8091A2048C3208F002CF9F
:1030E0008F5FFECE8091B70481508E3F08F001CFF4
:1030F0008091A104873408F0FCCE8F5FF8CE40E0C9
:1031000066E970E089EC94E00E94A90610938902B8
:1031100027CF40E06EE970E089EC94E00E94A906B8
:1031200059CF8091BA04813009F049CE36CE8091D2
:10313000BA044091150550911605609117057091DC
:1031400018058130B1F540938B0250938C02609347
:103150008D0270938E0284E08093890261E070E0BA
:1031600080E090E00E94321A8EE994E00E94A30968
:10317000409115055091160560911705709118053D
:1031800000E020E08BE291E00E94C60B4091150523
:1031900050911605609117057091180520E082E3A3
:1031A00091E00E94C60B83E28093A104F092A204F6
:1031B0006DCE80918B0290918C02A0918D02B09186
:1031C0008E022A013B01481A590A6A0A7B0A1093A7
:1031D0001205109313059CE2491651046104710411
:1031E00008F059C0B301A2017695679557954795A8
:1031F0004B502BE333E06BE182EF94E00E94F10649
:1032000000E329E040E060E082EF94E00E94AE0835
:1032100029E040E06BE482EF94E00E94AE08FDE21A
:103220004F1651046104710408F430CE6EE475E069
:1032300082EF94E00E94DD062092FC04F092FB04F1
:1032400065E373E082EF94E00E941F049092FC0417
:10325000F092FB0468E273E082EF94E00E941F04A6
:1032600043FE14CE66EA70E082EF94E00E94DD0631
:103270008092FC04B092FB0465E182EF94E00E942E
:1032800018043092FC04B092FB0466E182EF94E0F3
:103290000E941804FBCD4BE0ACCF40911505509136
:1032A0001605609117057091180580918B02909119
:1032B0008C02A0918D02B0918E022A013B01481A26
:1032C000590A6A0A7B0A10931205109313056EE4DB
:1032D00075E082EF94E00E94DD0624E64216510478
:1032E0006104710478F48FE18093FB048EE0809395
:1032F000FC0463E873E082EF94E00E941F040E94E4
:103300008210C4CD3AEF431651046104710478F47D
:103310008AE08093FB048EE08093FC0465E773E011
:1033200082EF94E00E941F040E940F11AFCD80E94C
:10333000481681E058066104710408F093CD8EE0D0
:103340008093FB048093FC0469E673E082EF94E0D1
:103350000E941F04409115055091160560911705B4
:10336000709118058BE291E00E94290B40911505A0
:1033700050911605609117057091180582E391E050
:103380000E94290B8BE291E00E94711082E391E090
:103390000E9471107BCD1092F5041092F40489E024
:1033A00091E09093F3048093F204E1EAF4E083E285
:1033B000808386E181838EE994E00C94A3098F9247
:1033C0009F92AF92BF92CF92DF92EF92FF92CF93F4
:1033D000DF93EC01688179818A819B816115710598
:1033E0008105910521F464E279ED8BE597E02DE10B
:1033F00033EF41E050E00E94511A49015A019B010C
:10340000AC01A7EAB1E40E94701A6B017C01ACEE3A
:10341000B4EFA50194010E947E1ADC01CB018C0D52
:103420009D1DAE1DBF1DB7FF03C00197A109B04888
:1034300088839983AA83BB83BC01CD019F77DF91E9
:10344000CF91FF90EF90DF90CF90BF90AF909F9083
:103450008F9008950E94DF19089581E091E00E9405
:10346000DF190895609301017093020180930301B5
:10347000909304010895F999FECF92BD81BDF89A09
:10348000992780B50895262FF999FECF1FBA92BDCE
:1034900081BD20BD0FB6F894FA9AF99A0FBE019635
:1034A0000895052E97FB1EF400940E94681A57FD9C
:1034B00007D00E94831A07FC03D04EF40C94681ABC
:1034C00050954095309521953F4F4F4F5F4F089550
:1034D00090958095709561957F4F8F4F9F4F089580
:1034E0000E94A51AA59F900DB49F900DA49F800DDA
:1034F000911D11240895B7FF0C94701A0E94701A40
:10350000821B930B0895A1E21A2EAA1BBB1BFD017F
:103510000DC0AA1FBB1FEE1FFF1FA217B307E407B2
:10352000F50720F0A21BB30BE40BF50B661F771F0A
:10353000881F991F1A9469F76095709580959095EA
:103540009B01AC01BD01CF010895A29FB001B39FC3
:10355000C001A39F700D811D1124911DB29F700D9C
:10356000811D1124911D08950E94281B88F09F57EA
:1035700098F0B92F9927B751B0F0E1F0660F771F97
:10358000881F991F1AF0BA95C9F714C0B13091F08D
:103590000E94421BB1E008950C94421B672F782FC4
:1035A0008827B85F39F0B93FCCF386957795679552
:1035B000B395D9F73EF490958095709561957F4FBE
:1035C0008F4F9F4F0895E89409C097FB3EF4909564
:1035D0008095709561957F4F8F4F9F4F9923A9F0EC
:1035E000F92F96E9BB279395F6958795779567957B
:1035F000B795F111F8CFFAF4BB0F11F460FF1BC0BF
:103600006F5F7F4F8F4F9F4F16C0882311F096E951
:1036100011C0772321F09EE8872F762F05C06623FF
:1036200071F096E8862F70E060E02AF09A95660FB8
:10363000771F881FDAF7880F9695879597F9089571
:1036400057FD9058440F551F59F05F3F71F0479553
:10365000880F97FB991F61F09F3F79F08795089538
:10366000121613061406551FF2CF4695F1DF08C057
:10367000161617061806991FF1CF86957105610574
:1036800008940895E894BB2766277727CB0197F91C
:1036900008950E945C1B0C94CD1B0E94BF1B38F048
:1036A0000E94C61B20F0952311F00C94B61B0C94BD
:1036B000BC1B11240C94431B0E94201B70F3959F8C
:1036C000C1F3950F50E0551F629FF001729FBB2719
:1036D000F00DB11D639FAA27F00DB11DAA1F649FB5
:1036E0006627B00DA11D661F829F2227B00DA11D68
:1036F000621F739FB00DA11D621F839FA00D611DEE
:10370000221F749F3327A00D611D231F849F600D0E
:10371000211D822F762F6A2F11249F5750409AF037
:10372000F1F088234AF0EE0FFF1FBB1F661F771FC3
:10373000881F91505040A9F79E3F510580F00C948E
:10374000B61B0C94431B5F3FE4F3983ED4F386957D
:1037500077956795B795F795E7959F5FC1F7FE2B2E
:10376000880F911D9695879597F9089597F99F670A
:1037700080E870E060E008959FEF80EC08950024F9
:103780000A941616170618060906089500240A94C6
:1037900012161306140605060895092E0394000C4C
:1037A00011F4882352F0BB0F40F4BF2B11F460FFDB
:1037B00004C06F5F7F4F8F4F9F4F0895DB018F9342
:1037C0009F930E94701ABF91AF91A29F800D911D8F
:1037D000A39F900DB29F900D11240895991B79E03D
:1037E00004C0991F961708F0961B881F7A95C9F791
:1037F0008095089597FB072E16F4009407D077FD67
:1038000009D00E940E1C07FC05D03EF490958195CE
:103810009F4F0895709561957F4F0895AA1BBB1B1C
:1038200051E107C0AA1FBB1FA617B70710F0A61BC0
:10383000B70B881F991F5A95A9F780959095BC01E1
:10384000CD010895EE0FFF1F0590F491E02D09942E
:0E38500081E090E0F8940C942D1CF894FFCFCA
:10385E00010100000000000000D708E70313041266
:10386E000447616D65204F766572006869000D0A28
:08387E00004C4F41444552008B
:00000001FF
